:1000000030080020A5100000011100001F110000A1
:1000100001110000011100000111000000000000AA
:1000200000000000000000000000000001110000BE
:10003000011100000000000001110000011100008A
:100040000111000001110000011100000111000068
:100050000111000001110000011100000111000058
:100060000111000001110000011100000111000048
:100070000111000001110000011100000111000038
:100080000111000001110000011100000111000028
:100090000111000001110000011100000111000018
:1000A0000111000001110000011100000111000008
:1000B00001110000011100000111000001110000F8
:1000C00001110000011100000111000001110000E8
:1000D00001110000011100000111000001110000D8
:1000E00001110000011100000111000001110000C8
:1000F00001110000011100000111000001110000B8
:1001000080B586B000AFF860B9607A603B60F8688F
:1001100000F056F87B681A01BB689A420BD9FB685D
:100120003033FA683032126842F020021A607B687D
:100130005B087B6007E0FB683033FA683032126896
:1001400022F020021A60BB68DA007B68B2FBF3F38E
:1001500001335B087B61FB6824337A6992091A607A
:10016000FB6828337A6902F03F021A60FB682C337F
:100170003A681A60FB68183300221A60F86800F0C9
:1001800003F81837BD4680BD80B483B000AF7860F7
:100190007B682C337A682C32126842F010021A60A5
:1001A0007B6830331A467B6830331B6843F44073F6
:1001B00043F0010313600C37BD465DF8047B7047C4
:1001C00080B483B000AF786000BF7B6818331B68D1
:1001D00003F00803002BF8D17B682C337A682C32AB
:1001E000126822F010021A607B6830331A467B686E
:1001F00030331B6823F4407323F0010313600C3782
:10020000BD465DF8047B704780B483B000AF786072
:100210000B46FB7000BF7B6818331B6803F020039C
:10022000002BF8D17B68FA781A600C37BD465DF870
:10023000047B704780B58EB000AF154800F056F8CB
:10024000144800F02FF8144800F02CF84FF040202C
:10025000032100F011FF00F051F903460F48194641
:100260004FF416526023FFF74BFF0C48FFF78CFF4B
:100270000B4800F089FD00237B6302E07B6B0133B8
:100280007B637A6B42F20F739A42F7D9F0E700BFB3
:1002900080038007010000200100001000C0004022
:1002A0003811000080B483B000AF78607B681A0F0B
:1002B0000B4B53F822307A68110F094A52F821206B
:1002C00011687A6890B27A6802F4F812120C00FA97
:1002D00002F20A431A600C37BD465DF8047B704792
:1002E0006411000001387FF4FDAF704780B586B01F
:1002F00000AF7860774B1B6803F0E043002B06D01B
:10030000744B1A68744B1340B3F1805F03D17B6860
:10031000002B00DADBE0714B1B683B61704B1B6804
:10032000FB603B6943F400633B613B6923F480035A
:100330003B61FB6843F40063FB60684B3A691A60F9
:10034000674BFA681A603B6903F00203002B04D084
:100350007B6803F00203002B09D03B6903F0010323
:10036000002B2BD07B6803F00103002B26D17B6888
:1003700063F003033A6913403B61584B3A691A60D2
:10038000FB68002B09DAFB6803F07003302B0CD0FC
:10039000FB6803F07003702B07D0FB68002B09DBB0
:1003A0003B6903F03003302B04D14FF48050FFF74A
:1003B00099FF03E04FF40020FFF794FF3B6923F41B
:1003C0005F5323F030033B617A6843F2F0731340CC
:1003D0003A6913433B61FA68424B1340FB607A6809
:1003E000414B1340FA681343FB607B6803F008033A
:1003F000DB00FA681343FB603C4B40221A60FB6849
:10040000002B06DA364BFA681A60344B3A691A60E8
:1004100005E0324B3A691A60314BFA681A601020D5
:10042000FFF760FF3B6923F0F86323F003033B61B0
:100430007A682F4B13403A6913433B61FB6823F002
:10044000FC53FB607B6803F0FC53FA681343FB60CA
:100450007B6803F08043002B0ED03B6943F480039C
:100460003B61FB6823F48003FB607A68214B1340F7
:10047000FA681343FB6003E0FB6823F08043FB60F2
:100480007B6803F40063002B18D14FF400437B61B9
:1004900009E0194B1B6803F04003002B00D005E076
:1004A0007B69013B7B617B69002BF2D13B6923F4C3
:1004B00000633B61FB6823F40063FB60074B3A6910
:1004C0001A60074BFA681A601020FFF70BFF183705
:1004D000BD4680BD00E00F400000FF7060E00F40AF
:1004E00070E00F408FDFFF7F3020008058E00F402A
:1004F0000300C0070000404050E00F4080B485B0CA
:1005000000AF964B1B68FB60954B1B687B607B685C
:10051000002B03DA7B6803F0700302E0FB6803F052
:100520003003202B45D0202B04D8002B09D0102BD2
:1005300010D079E0602B6FD0702B71D0302B67D04A
:1005400072E0FB6803F4F8639A09864B53F8223093
:10055000BB606BE0844B1B6803F0E043002B06D0CC
:10056000814B1A68814B1340B3F1805F02D1804BFD
:10057000BB601DE07C4B1A687C4B13407D4A934264
:1005800004D1794B1B689BB2022B0BD0764B1A68B7
:10059000764B1340784A934207D1734B1B689BB24A
:1005A000002B02D1754BBB6002E0754BBB603DE098
:1005B0003CE06D4B1B6803F0E043002B06D06A4B18
:1005C0001A686A4B1340B3F1805F02D16D4BBB6078
:1005D0001DE0654B1A68654B1340664A934204D18F
:1005E000614B1B689BB2022B0BD05F4B1A685F4BB1
:1005F0001340614A934207D15B4B1B689BB2002BAF
:1006000002D1614BBB6002E0604BBB600EE00DE0CD
:1006100047F23053BB6009E04FF48003BB6005E054
:100620004FF40043BB6001E0002390E07B68002BA7
:1006300004DA7B6803F40063002B07D07B68002B8F
:1006400049DBFB6803F40063002B44D1504B1B686B
:100650003B60454B1B6803F0E043002B06D0424B48
:100660001A68424B1340B3F1805F10D13A6843F6E9
:10067000E07313405B090233BA6802FB03F23B6884
:1006800003F01F030233B2FBF3F3BB600FE03A68E1
:1006900043F6E07313405B09BA6802FB03F23B6860
:1006A00003F01F0301335B00B2FBF3F3BB603B6855
:1006B00003F48043002B02D0BB685B08BB603B683F
:1006C00003F40043002B02D0BB689B08BB60FB68AF
:1006D00043F48003FB60FB6803F48003002B35D0F8
:1006E0007B68002B29DA7B6803F08043002B1AD04B
:1006F0007B68002B04DA7B6803F40063002B07D0CF
:100700007B68002B0FDBFB6803F40063002B0AD12E
:10071000BB685A007B6803F0FE539B0D0133B2FBAC
:10072000F3F3BB6012E07B6803F0FC53DB0D013395
:10073000BA68B2FBF3F3BB6008E0FB6803F0F06358
:10074000DB0D0133BA68B2FBF3F3BB60BB6818463C
:100750001437BD465DF8047B704700BF60E00F4072
:1007600070E00F408811000000E00F400000FF70B3
:10077000C0E1E4000000011000000310001BB700FE
:100780000024F40070383900C0C62D0000093D0077
:1007900064E00F4080B582B000AF0346FB71FB7987
:1007A00003481946FFF730FD0837BD4680BD00BF3E
:1007B00000C0004080B483B000AF78600B46FB708F
:1007C0007B68FA781A70012318460C37BD465DF82D
:1007D000047B704780B485B000AF78603960002337
:1007E000FB600AE07B685A1C7A603A68511C3960E9
:1007F00012781A70FB680133FB603B681B78002B92
:10080000F0D1FB6818461437BD465DF8047B70478D
:1008100080B586B000AFF8607A603B600B46FB7233
:1008200000237B617B68013B7B603B68092B10D90F
:100830003A681E4BA3FB0213DB08FA7AF8681146EC
:100840007A68FFF7E5FF78617B69FA681344FB601B
:1008500011E00DE0FB7AF8681946FFF7ABFFFB6883
:100860000133FB607B6901337B617B68013B7B600B
:100870007B68002BEEDC39680C4BA3FB0123DA0804
:1008800013469B0013445B00CA1AD3B23033DBB269
:10089000F8681946FFF78EFF03467A6913447B61B7
:1008A0007B6918461837BD4680BD00BFCDCCCCCC87
:1008B00080B586B000AFF8607A603B600B46FB7293
:1008C00000237B613B68002B03DA3B685B423B61A2
:1008D00001E03B683B617B68013B7B603B69092B26
:1008E00021D93B68002B0DDA3A692F4BA3FB021389
:1008F000DB085B42FA7AF86811467A68FFF7D8FF9E
:1009000078610BE03A69284BA3FB0213DB08FA7A03
:10091000F86811467A68FFF7CBFF78617B69FA685F
:100920001344FB6026E03B68002B03DA7B68013B45
:100930007B600EE00DE0FB7AF8681946FFF73AFF9E
:10094000FB680133FB607B6901337B617B68013BA2
:100950007B607B68002BEEDC3B68002B0ADAF868D2
:100960002D21FFF727FF03467A6913447B61FB685B
:100970000133FB6039690C4BA3FB0123DA081346F2
:100980009B0013445B00CA1AD3B23033DBB2F86861
:100990001946FFF70FFF03467A6913447B617B69B1
:1009A00018461837BD4680BDCDCCCCCC80B588B0BC
:1009B00002AFF8607A600A46FA72BB7200237B616C
:1009C0007B68013B7B603B6A1B09002B12D03B6AB2
:1009D0001909FA7ABB7A0091F86811467A68FFF72C
:1009E000E5FF03467A6913447B617B69FA68134427
:1009F000FB6011E00DE0FB7AF8681946FFF7DAFEBC
:100A0000FB680133FB607B6901337B617B68013BE1
:100A10007B607B68002BEEDC3B6A03F00F03092B45
:100A20000BD83B6ADBB203F00F03DBB23033DBB22F
:100A3000F8681946FFF7BEFE19E0BB7A002B0BD011
:100A40003B6ADBB203F00F03DBB23733DBB2F8688B
:100A50001946FFF7AFFE0AE03B6ADBB203F00F0373
:100A6000DBB25733DBB2F8681946FFF7A3FE7B69A8
:100A700001337B617B6918461837BD4680BD00BFD6
:100A800080B58AB002AFF860B9607A603B6000233D
:100A9000BB6100237B61FB68002B03D0FB68002255
:100AA0001A70F8E0F7E07B681B78252B0BD0FB6809
:100AB0005A1CFA607A68511C796012781A707B6946
:100AC00001337B61E7E07B6801331B78252B0BD179
:100AD000FB685A1CFA6025221A707B6802337B601F
:100AE0007B6901337B61D6E02023FB770023BB7752
:100AF0007B6801337B607B681B78302B05D130230A
:100B0000FB777B6801337B600FE00EE0BB7F1A460A
:100B1000920013445B00DAB27B681B781344DBB2AB
:100B2000303BBB777B6801337B607B681B782F2B66
:100B300003D97B681B78392BE8D9BA7F7B691344CA
:100B40001A46BB689A4205D9BB68DAB27B69DBB248
:100B5000D31ABB777B681B78583B202B00F28D8023
:100B600001A252F823F000BF350C00007B0C0000FE
:100B70007B0C00007B0C00007B0C00007B0C000059
:100B80007B0C00007B0C00007B0C00007B0C000049
:100B90007B0C0000650C0000ED0B00007B0C0000DE
:100BA0007B0C00007B0C00007B0C0000ED0B0000B8
:100BB0007B0C00007B0C00007B0C00007B0C000019
:100BC0007B0C00007B0C00007B0C00007B0C000009
:100BD0007B0C0000510C00007B0C0000030C00009B
:100BE0007B0C00007B0C0000190C0000BA7F3B68F6
:100BF000191D39601B68F97FF868FFF759FEB86165
:100C00003EE0BA7F3B68191D39601B68F97FF868C0
:100C1000FFF7FEFDB86133E0BA7F3B68191D39600C
:100C20001968FB7F0091F86819460023FFF7BEFEA4
:100C3000B86125E0BA7F3B68191D39601968FB7FF0
:100C40000091F86819460123FFF7B0FEB86117E07C
:100C50003B681A1D3A601B68F8681946FFF7BAFD31
:100C6000B8610DE03B681A1D3A601B68DBB2F8689A
:100C70001946FFF79FFDB86102E04FF0FF3325E012
:100C80007B6801337B60BB69FA681344FB607A6957
:100C9000BB6913447B617B681B78002B04D07A69A5
:100CA000BB689A42FFF4FFAE7A69BB689A4203D2EE
:100CB000FB6800221A7008E0FB68013BFB60FB68E0
:100CC00000221A707B69013B7B617B6918462037E3
:100CD000BD4680BD80B584B000AFF860B9607A6071
:100CE000F8686421BA687B68FFF7CAFE03461846B5
:100CF0001037BD4680BD00BFB0B5A6B000AFF860EC
:100D0000B9607A60144B07F110041D460FCD0FC473
:100D10000FCD0FC42B68236007F134031846B96860
:100D20007A68FFF7D7FF0346632B09DD0B4B1B687F
:100D3000DB6807F110021046194600F059F8FEE78B
:100D400007F134031846F96800F052F803461846D4
:100D50009837BD46B0BD00BFE41100002804002054
:100D600080B582B000AF78603960064B1B689B6825
:100D7000184679683A68FFF7BFFF034618460837F8
:100D8000BD4680BD280400200FB480B582B000AFFE
:100D900007F114033B6038693968FFF7E1FF7860B9
:100DA0007B6818460837BD46BDE8804004B07047F0
:100DB00080B582B000AF786039600C4B1B689A68D0
:100DC0003B689A4205D0094B1B68DA683B689A4237
:100DD00006D17B68DBB21846FFF7DCFC7B6801E0DC
:100DE0004FF0FF3318460837BD4680BD2804002069
:100DF00080B584B000AF786039600023FB6012E0FA
:100E00007B681B7818463968FFF7D2FF0346B3F1B9
:100E1000FF3F02D14FF0FF330AE0FB680133FB6074
:100E20007B6801337B607B681B78002BE8D1FB6813
:100E300018461037BD4680BD80B485B000AFF8605D
:100E40000B467A60FB72FB6803F580631A467B6889
:100E500003F00103002B06D0FB6803F580631968DB
:100E6000FB7A0B4306E0FB6803F580631968FB7AA5
:100E7000DB430B401360FB6803F584631A467B6811
:100E800003F00203002B06D0FB6803F584631968A6
:100E9000FB7A0B4306E0FB6803F584631968FB7A71
:100EA000DB430B4013601437BD465DF8047B70478D
:100EB00080B485B000AFF8607A603B600B46FB728F
:100EC000FB6803F5A0631A467B6803F00103002B5F
:100ED00006D0FB6803F5A0631968FB7A0B4306E0B4
:100EE000FB6803F5A0631968FB7ADB430B401360D2
:100EF000FB6803F204531A467B6803F00203002BDD
:100F000006D0FB6803F204531968FB7A0B4306E032
:100F1000FB6803F204531968FB7ADB430B40136050
:100F2000FB6803F5A1631A467B6803F00403002BFA
:100F300006D0FB6803F5A1631968FB7A0B4306E052
:100F4000FB6803F5A1631968FB7ADB430B40136070
:100F5000FB6803F5A3631A467B6803F00803002BC4
:100F600006D0FB6803F5A3631968FB7A0B4306E020
:100F7000FB6803F5A3631968FB7ADB430B4013603E
:100F8000FB6803F20C531A463B6803F00103002B85
:100F900006D0FB6803F20C531968FB7A0B4306E09A
:100FA000FB6803F20C531968FB7ADB430B401360B8
:100FB000FB6803F5A2631A463B6803F00203002BAB
:100FC00006D0FB6803F5A2631968FB7A0B4306E0C1
:100FD000FB6803F5A2631968FB7ADB430B401360DF
:100FE000FB6803F214531A463B6803F00403002B1A
:100FF00006D0FB6803F214531968FB7A0B4306E032
:10100000FB6803F214531968FB7ADB430B4013604F
:10101000FB6803F21C531A463B6803F00803002BDD
:1010200006D0FB6803F21C531968FB7A0B4306E0F9
:10103000FB6803F21C531968FB7ADB430B40136017
:10104000FB6803F5A5631A463B68002B06D1FB68D5
:1010500003F5A5631968FB7A0B4306E0FB6803F50B
:10106000A5631968FB7ADB430B4013601437BD4658
:101070005DF8047B704700BF80B582B000AF786038
:101080000B46FB70FB78786819460222FFF7D4FE06
:10109000FB787868194601220823FFF709FF083713
:1010A000BD4680BD80B582B000AF104B7B60104B59
:1010B0003B6007E03B681A1D3A607A68111D796051
:1010C00012681A603A680B4B9A42F3D30A480B49EC
:1010D0004FF000028842B8BF40F8042BFFF6FAAF89
:1010E000FFF7A8F80837BD4680BD00BF0812000012
:1010F00000000020300400203004002030040020D4
:1011000080B400AFFEE700BFABBE00F002B8002025
:101110007047002A00F00180106001207047069897
:101120000188044A914240F00380043006907047E1
:10113000FEE70000ABBE000048656C6C6F20776F67
:10114000726C640D0A00000010E00F4014E00F40C4
:101150001CE00F4010E00F4040E00F4044E00F4023
:1011600048E00F4000E10F4004E10F4008E10F406C
:1011700010E10F4014E10F4018E10F4020E10F4053
:1011800024E10F4028E10F4040420F0000201C00E6
:1011900080841E0000802500999E360000403800A3
:1011A00000093D0000803E0000004B00404B4C0019
:1011B00000204E00808D5B0000C05D00008070004C
:1011C00000127A0000007D0080969800001BB70096
:1011D0000080BB00C0E8CE00647ADA000024F4008E
:1011E0000000FA00737464696F2E633A20696E63BD
:1011F0007265617365204D41585F535452494E47A3
:081200005F53495A450A0D0035
:1012080000000000000000000100000000000000D5
:1012180000000000000000000000000000000000C6
:1012280000000000000000000000000000000000B6
:1012380000000000000000000000000000000000A6
:101248000000000000000000000000000000000096
:101628000000000000000000000000200000000092
:00000001FF
