:1000000008040020B90100001502000015020000DC
:10001000150200001502000015020000000000009B
:1000200000000000000000000000000015020000B9
:100030001502000000000000150200003101000060
:100040001502000015020000150200001502000054
:100050001502000015020000150200001502000044
:100060001502000015020000150200001502000034
:100070001502000015020000150200001502000024
:100080001502000015020000150200001502000014
:100090001502000015020000150200001502000004
:1000A00015020000150200001502000015020000F4
:1000B00015020000150200001502000015020000E4
:1000C00015020000150200001502000015020000D4
:1000D00015020000150200001502000015020000C4
:1000E00015020000150200001502000015020000B4
:1000F00015020000150200001502000015020000A4
:1001000080B485B000AF7860084B1B68FB6000BF0F
:10011000FA687B681A44054B1B689A42F8D200BF04
:100120001437BD465DF8047B704700BF0000002017
:1001300080B400AF044B1B685A1C034B1A6000BF0D
:10014000BD465DF8047B70470000002080B500AF1D
:10015000064800F0C1F84FF4FA5000F07BF800F0C8
:100160005DF800F069F800BF80BD00BF8003800724
:1001700080B500AFFFF7EAFF0B4800F07BF80B4BB0
:100180000D221A600A4B0D221A600A4B01221A60D6
:100190004FF4FA70FFF7B4FF064B0C221A604FF4CD
:1001A000FA70FFF7ADFFF0E7200000200054024096
:1001B0001C5502403450024080B582B000AF104B55
:1001C0007B60104B3B6007E03B681A1D3A607A6821
:1001D000111D796012681A603A680B4B9A42F3D38A
:1001E0000A480B494FF000028842B8BF40F8042B80
:1001F000FFF6FAAFFFF7BCFF0837BD4680BD00BF72
:100200005804000000000020000000200000002032
:100210000400002080B400AFFEE700BF80B400AF50
:10022000044B044A126842F005021A60BD465DF8AC
:10023000047B704710E000E080B400AF044B044A38
:10024000126842F002021A60BD465DF8047B7047F6
:1002500010E000E080B483B000AF7860044B7A68AF
:10026000013A1A600C37BD465DF8047B704700BF49
:1002700014E000E000F07043B3F1704F15D100F4CA
:100280007F42114B120A00F0FF00D318800003F0E8
:10029000704240F0007023F07F43104323F470035A
:1002A00040EA431301221A607047020F81B200F442
:1002B000F810000C11FA00F0044B53F822301A68C1
:1002C00010431860704700BF00E60F404C04000068
:1002D0000138FDD170470000534B2DE9F0411A68F9
:1002E000044612F0E04F06D01A68504B02EA0303AE
:1002F000B3F1805F02D1002CC0F294804C494D4A8A
:100300000B68166843F4006323F4800546F4006626
:1003100013F0020F0D60166002D014F0020F05D02A
:1003200015F0010F1AD014F0010F17D164F0030378
:100330001D403F4B002E1D6005DA06F07003302B88
:1003400005D0702B02E005F03003302B02D14FF4C2
:10035000805001E04FF40020FFF7BAFF04F4FE6381
:1003600025F4FE6545EA0308334D26F0004604EA0D
:10037000050526F0700645EA060604F0080546EA7B
:10038000C5052C4F2A4E1020C6F800803D60FFF7AF
:100390009FFF28F4405804F40052284904F44053C5
:1003A00025F4005548EA030340201543244A086019
:1003B00052BF33603D60336023F0F86304EA020209
:1003C00023F0030358BF3D60134304F0FC5125F0B4
:1003D000FC5214F0804F42EA010208D0194922F47D
:1003E000800204EA010143F480030A4301E022F0A1
:1003F000804214F4006F0CD14FF4004112480068A1
:1004000010F0400F01D10139F8D123F4006322F438
:100410000062074910200B60064B1A60BDE8F041EE
:10042000FFF756BFBDE8F08100E00F400000FF700D
:1004300060E00F4070E00F403000008058E00F4057
:100440000300C0070000404050E00F4000E10F40B3
:0804500004E10F4008E10F4038
:00000001FF
