:1000000000040020A5010000010200000102000020
:1000100001020000010200000102000000000000D7
:1000200000000000000000000000000001020000CD
:1000300001020000000000000102000001020000B7
:1000400001020000010200000102000001020000A4
:100050000102000001020000010200000102000094
:100060000102000001020000010200000102000084
:100070000102000001020000010200000102000074
:100080000102000001020000010200000102000064
:100090000102000001020000010200000102000054
:1000A0000102000001020000010200000102000044
:1000B0000102000001020000010200000102000034
:1000C0000102000001020000010200000102000024
:1000D0000102000001020000010200000102000014
:1000E0000102000001020000010200000102000004
:1000F00001020000010200000102000001020000F4
:1001000080B582B000AF124800F02CF8114B0D22E0
:100110001A60114B0D221A6000237B6002E07B689D
:1001200001337B607A680D4B9A42F8D90C4B0D2253
:100130001A6000237B6002E07B6801337B607A6891
:10014000064B9A42F8D9064B00221A60E4E700BF3A
:1001500020000020005402401C550240EF490200DC
:100160003450024080B483B000AF78607B681A0FCF
:100170000B4B53F822307A68110F094A52F82120AC
:1001800011687A6890B27A6802F4F812120C00FAD8
:1001900002F20A431A600C37BD465DF8047B7047D3
:1001A0002402000080B582B000AF104B7B60104B82
:1001B0003B6007E03B681A1D3A607A68111D796060
:1001C00012681A603A680B4B9A42F3D30A480B49FB
:1001D0004FF000028842B8BF40F8042BFFF6FAAF98
:1001E000FFF78EFF0837BD4680BD00BFA4020000A8
:1001F000000000200000002000000020000000207F
:1002000080B400AFFEE700BF10E00F4014E00F40E5
:100210001CE00F4010E00F4040E00F4044E00F4072
:1002200048E00F4000E10F4004E10F4008E10F40BB
:1002300010E10F4014E10F4018E10F4020E10F40A2
:1002400024E10F4028E10F4040420F0000201C0035
:1002500080841E0000802500999E360000403800F2
:1002600000093D0000803E0000004B00404B4C0068
:1002700000204E00808D5B0000C05D00008070009B
:1002800000127A0000007D0080969800001BB700E5
:100290000080BB00C0E8CE00647ADA000024F400DD
:0402A0000000FA0060
:00000001FF
