:10000000504C00200907000065070000650700004C
:10001000650700006507000065070000000000009C
:100020000000000000000000000000006507000064
:10003000650700000000000065070000650700007C
:100040006507000065070000650700006507000000
:1000500065070000650700006507000065070000F0
:1000600065070000650700006507000065070000E0
:1000700065070000650700006507000065070000D0
:1000800065070000650700006507000065070000C0
:1000900065070000650700006507000065070000B0
:1000A00065070000650700006507000065070000A0
:1000B0006507000065070000650700006507000090
:1000C0006507000065070000650700006507000080
:1000D0006507000065070000650700006507000070
:1000E0006507000065070000650700006507000060
:1000F0006507000065070000650700006507000050
:1001000080B584B002AF3F4800F036FC3E4800F0B6
:1001100095FA00237B6017E07B685A1C7A603B4AA3
:1001200013441846002100220B2300F05DF9002340
:100130003B6002E03B6801333B603A68344B9A42D3
:10014000F8DD7B6801337B607B68352BE4D9602365
:100150000093304800210022802300F0EDF90023B5
:100160003B6002E03B6801333B603A68284B9A42AF
:10017000F8DD60230093284800210022802300F04E
:10018000DBF900233B6002E03B6801333B603A68E7
:100190001F4B9A42F8DD6023009320480021002283
:1001A000802300F0C9F900233B6002E03B68013383
:1001B0003B603A68164B9A42F8DD6023009316487C
:1001C00000210022802300F0B7F900233B6002E009
:1001D0003B6801333B603A680D4B9A42F8DD60237F
:1001E00000930C4800210022802300F0A5F9002391
:1001F0003B6002E03B6801333B603A68044B9A4243
:10020000F8DD86E7803B800740420F000048002071
:100210009F86010000000020001800200030002010
:1002200080B582B000AF78603960254B03F0704232
:10023000234BC3F313035B01134343F000731B68A9
:10024000002B00D138E01E4B03F070421C4BC3F36F
:1002500013035B01134343F0007343F004031B6873
:10026000002B1AD000BF174800F04FFB0346002BAD
:10027000F9D115488021002200F0F3FA104B03F069
:1002800070420F4BC3F313035B01134343F000733E
:1002900043F0040300221A600BE00AE07B685A1C5A
:1002A0007A601B780748194600F029FB3B68013B40
:1002B0003B603B68002BF1D10837BD4680BD00BFD5
:1002C00040480020008000400060004080B582B0BF
:1002D00000AF78603960254B03F07042234BC3F3C5
:1002E00013035B01134343F000731B68002B00D121
:1002F00038E01E4B03F070421C4BC3F313035B0149
:10030000134343F0007343F004031B68002B1AD11E
:1003100000BF174800F0F9FA0346002BF9D1154841
:100320008021802200F09DFA104B03F070420F4BA9
:10033000C3F313035B01134343F0007343F004035F
:1003400001221A600BE00AE07B685A1C7A601B7875
:100350000748194600F0D3FA3B68013B3B603B6815
:10036000002BF1D10837BD4680BD00BF40480020BA
:10037000008000400060004080B582B000AF154BA7
:1003800000221A60144B00221A6014480321FFF760
:1003900047FF13480321FFF743FF12480221FFF7ED
:1003A0003FFF00237B600FE000233B6006E009482D
:1003B0000821FFF78BFF3B6810333B603B687F2BC6
:1003C000F5D97B6801337B607B685F2BECD90837FC
:1003D000BD4680BD4448002048480020500F000022
:1003E000540F00001C0D000080B588B000AFF8600D
:1003F000B9607A60FB704D4B15221A70BB685B08C0
:10040000DAB24A4B5A70494B3F229A70474803214F
:10041000FFF706FF454B75221A707B68DAB2434B33
:100420005A707B68DBB20733DAB2404B9A703F48B0
:100430000321FFF7F5FE3E480221FFF7F1FE6EE0D3
:10044000FB685A1CFA601B7803F07F03FB75FB7D89
:100450001F2B02D80023FB7502E0FB7D203BFB75C0
:100460000023FB6158E00023BB6144E02F4ABB69D5
:10047000134400221A70FA7D2E4913469B00134440
:10048000FA6913440B441B781A46BB6942FA03F31A
:1004900003F00103002B06D0FB781B01DAB22349DD
:1004A000BB690B441A70FB69032B21D8FA7DFB69E9
:1004B000581C204913469B00134403440B441B78EB
:1004C0001A46BB6942FA03F303F00103002B0FD075
:1004D000164ABB6913441B78DAB2FB7803F00F03AA
:1004E000DBB21343DBB2DAB21049BB690B441A70BA
:1004F000BB690133BB61BB69072BB7D90B48082126
:10050000FFF7E4FEBB680233BB60BB68802B00D101
:1005100009E0FB690233FB61FB69052BA3D9FB688A
:100520001B78002B8CD12037BD4680BD444800206D
:10053000180D0000200D000080B584B000AFF860F9
:10054000B9607A603B60204B15221A70BB685B086B
:10055000DAB21D4B5A70BA683B681344023B5B0821
:10056000DAB2194B9A7018480321FFF759FE164B5F
:1005700075221A707B68DAB2134B5A707B68DAB254
:10058000BB69DBB21344DBB2013BDAB20E4B9A70AB
:100590000D480321FFF744FE0C480221FFF740FEFF
:1005A0000AE03B685B08F8681946FFF78FFE3B6876
:1005B0005B08FA681344FB60BB695A1EBA61002BE2
:1005C000EFD11037BD4680BD444800201C0D00000F
:1005D00080B584B002AF7860164800F08BF900F067
:1005E00085FA03467A68009208220192114819465A
:1005F0000322002300F054F94FF04020082100F0BE
:1006000041F94FF04020082104220A2300F0C5F8E8
:10061000084800F06AF9084B03F07042064BC3F338
:1006200013035B01134343F0007301221A60083780
:10063000BD4680BD008000404048002080B584B0A9
:1006400000AF78602A4800F065F92A4800F062F9A6
:10065000294800F05FF94FF040202C2100F012F9FA
:100660004FF040202C2104220A2300F096F8234862
:10067000C02100F0F9F82148C0210422082300F02D
:100680008CF81E48C021C02200F0EBF81C4B03F090
:1006900070421B4BC3F313035B01134343F000731E
:1006A00043F0040301221A607868FFF791FFFFF717
:1006B00063FE0023FB6015E0FB685A1C114B1A44D3
:1006C0001049FB680B441B78013B10461946FFF7A5
:1006D000A7FD0C4AFB6813441B781A46FB681344B9
:1006E0000133FB60FB684E2BE6D91037BD4680BD59
:1006F00010000010010000200400002000600040F5
:1007000040480020000F000080B582B000AF104BC1
:100710007B60104B3B6007E03B681A1D3A607A68CB
:10072000111D796012681A603A680B4B9A42F3D334
:100730000A480B494FF000028842B8BF40F8042B2A
:10074000FFF6FAAFFFF7DCFC0837BD4680BD00BFFF
:10075000D40F000000000020404800204048002046
:100760004C48002080B400AFFEE700BFD0F8003452
:1007700012F0010F14BF0B438B4310B500F58064DA
:10078000236012F0020FD0F8202400F5846314BF18
:10079000114322EA0101196010BD30B5D0F80045BF
:1007A00012F0010F14BF0C438C4300F5A0652C60C0
:1007B000D0F8045512F0020F00F5A06414BF0D43E9
:1007C0008D4304342560D0F8084512F0040F14BF9F
:1007D0000C438C4300F5A1652C6012F0080FD0F893
:1007E000182500F5A36414BF0A438A432260D0F899
:1007F0000C4513F0010F00F5A06214BF0C438C43AD
:100800000C321460D0F8102513F0020F14BF0A4305
:100810008A4300F5A2642260D0F8144513F0040F57
:1008200000F5A26214BF0C438C4304321460D0F86C
:100830001C4513F0080F00F5A26202F10C0214BF70
:100840000C438C43146000F5A56223B9D0F8283519
:1008500043EA010103E0D0F8283523EA01011160E1
:1008600030BD40F82120704770B5012208230546AD
:100870000C46FFF792FF284621460122BDE8704052
:10088000FFF774BF70B5022205460C46FFF76EFFF6
:100890002846214601220823BDE87040FFF77DBFAE
:1008A000022B10B502D023B1002300E0082304245A
:1008B00000E01C4623434360029BB1FBF3F100239D
:1008C0000233B1FBF3F4013CFF2CF9D8036193012F
:1008D00003F0FF0302F0300243EA0202039B013BF4
:1008E0001A4342EA0424046010BD436843F0020343
:1008F00043607047436823F0020343607047C36856
:1009000013F0020FFBD081607047C068C0F3001085
:100910007047000000F07043B3F1704F15D100F440
:100920007F42114B120A00F0FF00D318800003F041
:10093000704240F0007023F07F43104323F47003B3
:1009400040EA431301221A607047020F81B200F49B
:10095000F810000C11FA00F0044B53F822301A681A
:1009600010431860704700BF00E60F40C80F00003A
:100970000138FDD170470000534B2DE9F0411A6852
:10098000044612F0E04F06D01A68504B02EA030307
:10099000B3F1805F02D1002CC0F294804C494D4AE3
:1009A0000B68166843F4006323F4800546F4006680
:1009B00013F0020F0D60166002D014F0020F05D084
:1009C00015F0010F1AD014F0010F17D164F00303D2
:1009D0001D403F4B002E1D6005DA06F07003302BE2
:1009E00005D0702B02E005F03003302B02D14FF41C
:1009F000805001E04FF40020FFF7BAFF04F4FE63DB
:100A000025F4FE6545EA0308334D26F0004604EA66
:100A1000050526F0700645EA060604F0080546EAD4
:100A2000C5052C4F2A4E1020C6F800803D60FFF708
:100A30009FFF28F4405804F40052284904F440531E
:100A400025F4005548EA030340201543244A086072
:100A500052BF33603D60336023F0F86304EA020262
:100A600023F0030358BF3D60134304F0FC5125F00D
:100A7000FC5214F0804F42EA010208D0194922F4D6
:100A8000800204EA010143F480030A4301E022F0FA
:100A9000804214F4006F0CD14FF4004112480068FA
:100AA00010F0400F01D10139F8D123F4006322F492
:100AB0000062074910200B60064B1A60BDE8F04148
:100AC000FFF756BFBDE8F08100E00F400000FF7067
:100AD00060E00F4070E00F403000008058E00F40B1
:100AE0000300C0070000404050E00F407A4B70B553
:100AF0001A6810331B68002BB4BF03F0700102F0BA
:100B0000300120293AD004D869B1102940F0E180A1
:100B100010E060295DD0702958D0302940F0D9808C
:100B200047F2305063E002F4F8606C49800951F8F4
:100B300020005CE06A49086810F0E04F4CD00C6877
:100B4000684804EA0000B0F1805F45D00C68654851
:100B500004EA0000644CA04203D1096889B202296A
:100B60003CD05F485F49046804EA01015F4CA14240
:100B700036D100685E4980B25E4C22E05849086870
:100B800010F0E04F2ED00C68564804EA0000B0F197
:100B9000805F27D00C68534804EA0000524CA04202
:100BA00003D1096889B202291ED04D484D49046815
:100BB00004EA01014D4CA14218D100684E494F4C46
:100BC00080B200280CBF2046084610E04FF40040D9
:100BD0000DE04FF480000AE0494808E0454806E08F
:100BE000434804E0474802E0444800E04248002B04
:100BF00002DA13F4006F01E012F4006F4BD1384DAC
:100C000038492C6804EA01013F4CA14219D13F49FF
:100C10000D680431096801F01F0401F4F851013432
:100C2000090A640001316143394CB0FBF1F005EA77
:100C30000404A40A4443A905890DA40A01FB004049
:100C400027E0344909682C6814F0E04F43F6E0745B
:100C500001EA040406D02E68224D06EA0505B5F126
:100C6000805F06D16409023401F01F05604302353C
:100C700005E06409604301F01F0501356D00B0FB1C
:100C8000F5F011F4804F18BF400811F4004F18BF61
:100C9000800842F4800212F4800F1BD0002B11DA7E
:100CA00013F0804F07D013F4006F04D103F0FE530C
:100CB00040009B0D02E003F0FC53DB0D0133B0FB61
:100CC000F3F070BD02F0F062D20D0132B0FBF2F031
:100CD00070BD002070BD00BF60E00F405C0F0000E1
:100CE00000E00F400000FF70000001100000031042
:100CF0000024F400001BB70000093D00C0C62D0011
:100D0000C0E1E400703839000000051060E10F40D8
:100D100000FC0F0064E00F40A0560000A05200004D
:100D2000000000000000004F000000070007001452
:100D30007F147F14242A7F2A122313086462364901
:100D40005522500005030000001C224100004122F2
:100D50001C0014083E081408083E08080050300023
:100D6000000808080808006060000020100804025D
:100D70003E5149453E00427F400042615149462173
:100D800041454B311814127F1027454545393C4ADF
:100D9000494930017109050336494949360649492F
:100DA000291E003636000000563600000814224185
:100DB00000141414141400412214080201510906ED
:100DC000324979413E7E1111117E7F494949363EB3
:100DD000414141227F4141221C7F494949417F09CC
:100DE0000909013E4149497A7F0808087F00417F8F
:100DF00041002040413F017F081422417F40404094
:100E0000407F020C027F7F0408107F3E4141413E3B
:100E10007F090909063E4151215E7F09192946468D
:100E20004949493101017F01013F4040403F1F20B6
:100E300040201F3F4038403F631408146307087088
:100E400008076151494543007F41410002040810F1
:100E5000200041417F000402010204404040404024
:100E6000000102040020545454787F484444383828
:100E700044444420384444487F3854545418087E2D
:100E80000901020C5252523E7F0804047800447D4E
:100E900040002040443D007F1028440000417F4036
:100EA000007C041804787C080404783844444438EE
:100EB0007C14141408081414187C7C0804040848D2
:100EC00054545420043F4440203C4040207C1C208B
:100ED00040201C3C4030403C44281028440C5050DA
:100EE000503C4464544C44000836410000007F00EC
:100EF0000000413608000201020402000000000068
:100F000003FD12E302AEE3039400E303A85FE303EF
:100F100081B7E303823FE303A052E303A100E303AD
:100F2000A200E302A4E303B111E303B223E303B39A
:100F3000E2E311B8010203040506080A0C0E1013BF
:100F4000161A1EE303BB01E303BC3FE302AFE30059
:100F500015003F0075007F00AEE3000040420F0027
:100F600000201C0080841E0000802500999E360011
:100F70000040380000093D0000803E0000004B00AA
:100F8000404B4C0000204E00808D5B0000C05D0097
:100F90000080700000127A0000007D0080969800AA
:100FA000001BB7000080BB00C0E8CE00647ADA0006
:100FB0000024F4000000FA0080A81201002D310185
:100FC00000366E0140787D0100E10F4004E10F40E2
:040FD00008E10F40E5
:100FD40035355555555555555555555555555555FD
:100FE400555555555555757577757777777777775F
:100FF400888888887988777778788888888899999C
:10100400AAAA9A9A9A9A99A99A9AA9A9AAAAA9AAB1
:101014005555355353555555555555555555557580
:1010240057557555755777577777777777777777F4
:101034007878A7A7A8A88788887AA788A7A7A8AA3E
:10104400AAAAAAA8AA9AA8A9AA9A9A9AA9AAA9A944
:10105400555355555555555555555557557557551A
:10106400755775775775777777577777777777A742
:10107400A7A778A77A788A8A787888AA8A8AAAAA6F
:101084008AAAA8AAAAAAAAAAA9A9A9AA9AAAAA9A01
:10109400555555555555555555755575757575555C
:1010A400757757575777777777777777877877AAEA
:1010B400A877A7888A88878888A8A7A8A8AAA8AA9A
:1010C400AAAAAA9AAA9A9A9A9A9999A9A99AA9A902
:1010D4005555555555555755755575557575577716
:1010E4005755757577777777777777A78787887771
:1010F400878A7AA8A7878A88A87A7A78A8A8AAA8C3
:101104008AA999A999A9AAAA9999A9A9A9AAAA9AB5
:1011140057575555757555575555775755575777EB
:101124007577777777777777787777A778887788F9
:101134008878788778888A88888777A79A8A88A918
:10114400A999999AAAAAAA999AA9A9A9AAACAAAA50
:10115400555555755755575575755577577765775F
:10116400777777777778877777878878775775551C
:1011740055555778887888888A87AAAA8A8AAAAA15
:10118400A9AA9AA9AAAAAAAA9AAA9A9AAAAACAAADD
:10119400575557575575557555755775757777570D
:1011A4007777777778788879877753311111333166
:1011B400131311111133555788A78A9AA8A9AAAAFB
:1011C4009A9AAAAACAAAA9AA9AAAA9A9AAAAAAAA8E
:1011D4005557575577755557757575777757777789
:1011E40077777778778878877753111111131111EE
:1011F4003111131111113133579A88A8A9989A9A69
:10120400A9AAAAAAAAACAAA9AAAAAA9AA9AAAAAA4B
:1012140075757577757757575775777757777777E4
:10122400777777878788853111111311111111117F
:1012340011111311111111313311799898AA9A9A35
:101244009AAAACAAAAAAAA99AAAAAAAAACACCAAAF5
:101254005755777577757575755775767777777789
:1012640077777777888751001111331111100110A6
:101274001111111131313311113135789999A99A1C
:10128400AACAA9AAAAAAA9A9AAAAAAAAAAACCCAC77
:1012940077777775777775775777777777788777ED
:1012A40078787877875110001133311111111011AA
:1012B4001110101001113333331111135899AAA9C5
:1012C400AACACACAAAAAAAACAAAAACCAAAACCCCCB0
:1012D4007777757777777777777778785877878799
:1012E400888788977501111111333111111111116A
:1012F400111111011010113333331111138A9AAAE9
:10130400AAAAACCCACCAAACACAAAAAACCACCCCAC4B
:101314007777777787577777778677878878888816
:1013240088887775101111131333311111111111AC
:10133400101111111111100111131111111199A989
:10134400A9CAAACCCCCCCACACAACAACAAACCCCACAC
:101354007775777757777777787778786788888815
:101364008787755111111311133531111111111191
:101374001111111111010110111113111111899A77
:10138400AAAAAAACCCCAACACAAAACAACCAAACCCCEB
:101394007577775777777777778778778898888896
:1013A4008877310113111313333531313131111170
:1013B4001111111111101111110131111111138990
:1013C400AAAAAACCCCCCCCCACCACACACCCAACACC45
:1013D400777777777757777788788888888888A821
:1013E400A787111111133133335331111111131113
:1013F40011111111111110101111111111111139B3
:10140400AAACCCCCCCCCCCCAACAACCCAACCCACCCE0
:1014140077777877777787687778788888A87AAACB
:10142400873111111311133336533333331111111F
:1014340011111111101101111111111111111111A9
:1014440079ACCCCCCCACCCCACACCCCCCCCCCCCCC6F
:101454008787778777777787888888888888A9882F
:10146400973111111111333566665333333331110A
:101474001111111111101111110111111311111167
:1014840036CACCACACCCCCCCCCCCCCCCCCACCCCC90
:101494008877878778777887888888899A89A898C9
:1014A4005311111133568BBBBBBBB8888888866532
:1014B40033111111111111111111111111111111F6
:1014C4001159ACACCCCCCCCCCCCCCCCCCCCCCCCCC6
:1014D4007788777877777788887888888898A898BD
:1014E40031111135688BBBBBB9B9BBBB8BB88886CE
:1014F4006553311111111111111111111111111122
:101504001116BCCCCCCCCCCCCCCCCCCCCCCCCCCC98
:1015140087877867878778788888899AAA8888717E
:101524001111688BBBAAACCB9CBBBBB9B9888886AC
:1015340065553333131111111111111111111111B9
:1015440011119CACCCCCCCCCCCCCCCCCCCCCCCCC9D
:10155400877787877878878888889898AAAA88510F
:101564001113888B9BBBCCBCCCCCCCCCBBCBB8886C
:101574008855333311111111111111111111111158
:1015840011118ACCACCCCCCCCCCCCCCCCCCCCCCC6F
:101594008878777878888888888899A88AA885112F
:1015A400135588B9CCCCCCCCCCCCCCCCCCCBBBBB21
:1015B4008886555333311111111011111111111164
:1015C400111138CACCCCCCCCCCCCCCCCCCCCCCCC63
:1015D40078888887888878888889999AAA8A7311EC
:1015E40013368BBCCCCCCCCCCCCCCCCCCCCCCBB9EB
:1015F40088885363533331111111111111111111D1
:101604001111159CCCCCCCCCCCCCCCCCCCCCCCCC73
:1016140088878888888888888899A9A99A883311AE
:101624003588BCCCCCCCCCCCCCCCCCCCCCCCBCBB02
:10163400BB88656553333111111111111111111149
:101644001111115ACCCCCCCCCCCCCCCCCCCCCCCC79
:1016540078888888889888888899A999A8871101A2
:101664003588BACCCCCCCCCCCCCCCCCCCCCCCCBBB4
:10167400BBB8665633331111111111111111111127
:1016840011131139CCCCCCCCCCCCCCCCCCCCCCCC58
:101694008888898999988889999AAAAAA87311032C
:1016A400368BBCCCCCCCCCCCCCCCCCCCCCCCCCCC5D
:1016B400BBB86666353333111111111111111111B3
:1016C400111111139CCCCCCCCCCCCCCCCCCCCCCC70
:1016D400888898A898998899A9AAAA8A78511113F0
:1016E4005888BCCCCCCCCCCCCCCCCCCCCCCCCCCBFF
:1016F400BBB8865663533311111111111111111115
:10170400111111118CCCCCCCCCACCCCCCCCCCCCC61
:101714008888A8A8898999A9AAAAAAAA753111159D
:10172400688BCACCCCCCCCCCCCCCCCCCCCCCCCBBAD
:10173400BB888665555333311111111111111111E3
:10174400111111115CCCAA9CACAACCCCCCCACCCCC7
:1017540098889A9888A99AAAAAAAAAAA755101133C
:10176400688BBCCCCCCCCCCCCCCCCCCCCCCCCBCB6C
:10177400B8B888865553333311131111111111114F
:10178400111111113CCAAAAACACCCCCCAA9CCCCCAB
:10179400988899988989AAAAAAAAAA755631013360
:1017A40058B8BCCCCCCCCCCCCCCCCCCCCCCCBBBB2F
:1017B400B88B8888665533533311111111111111E7
:1017C40011111111159AAA7AAACCACACABAACCCC43
:1017D4008989A999999AAAAAAAAAAA55553111350B
:1017E400688BBCCCCCCCCCCCCCCCCCCCCCCCBBBB0C
:1017F4008BB8888886656653331111111111111144
:101804001111111133788789CABAAAA9AAACCCCC10
:101814008898999998AAAAAA9AAC956533311135F2
:1018240068BBCCCCCBCCCCCCCCCCCCCCCCCBBBBB8D
:10183400B8BB8B8888886656333111111111111188
:1018440011011111117878799999AAA99AAACCCC85
:101854008989999989AA9AAACACA756331110156C4
:10186400688BBCCCCCCCCCCCCCCCCCCCCCCCCBBB7B
:10187400BBBBB8BB888886563531111111111111C3
:10188400111111111158A87799999998AAAACCCC39
:101894009889A99999AA9AACACAA555131110358BF
:1018A400889BCCCCCCCCCCCCCCCCCCCCCCCCBACBFC
:1018B400BBBBB9BBBBB8886533331111111111110E
:1018C40011111113115787778787877A8A9AAAACDF
:1018D40098899AA9AACAACCAA9CA5833113003581C
:1018E40088BBCABCCCCCCCCCCCCCCCCCCCCCCCCB9C
:1018F400CBCCBBBBBB8B68665333111111111111D7
:1019040011111111113877777788878887AAAAA9C6
:101914009989BAACAAAAA9CACAC8533111110356E3
:101924008BBAACBCCCCCCCCCCCCCCCCCCCCCBCCC86
:10193400BCBCBB8BBB8886653333111111111111EB
:1019440011111111113777755788888AA7AA8AAAA5
:101954009999ACAACACACA9CA9B88331131003685E
:101964008BBCCCCACCCCCCCCCCCCCCCCCCCCCBCC07
:10197400BACBBBB88B88886553331111111111018F
:101984001111111111177775577788A8AAAAA8A859
:10199400AAACACAA9CACCACCABB755311111115846
:1019A4008BBBCCCCCCCCCCCCCCCCCCCCCCCCCCBBD6
:1019B400BBBBBB88888865635331111111111111A8
:1019C4001111111111175555577788999A8AA7AA99
:1019D400AAC9AAAAAAACCCAACAB535301110035612
:1019E4008B8BBBBCCCCCCCCCCCCCCCCCCCCCBBBBF8
:1019F400BBB8868886655555333111111111111004
:101A0400111111113117555777577778A8AAA7A83C
:101A1400BAA99A9A9CAC9BAC9955353110100138EF
:101A24008888888BBBBBBCBCBBBBBBBBBB865555CA
:101A34005553555535535535333331111111101153
:101A44001111113113135557775777757AA7A7AA30
:101A5400AA9BAA9AAAAAC99A995533311111013697
:101A6400688655668BBCCBBBBBBBBBB886353555CE
:101A7400533333333333533353331111111111119E
:101A8400111111113113555575777757777A7A7A81
:101A940059A99AAAACAAAC9989735133111101338B
:101AA40033158B8655568BBBBBBB85333356B888F1
:101AB4008655331113135536653311111111111154
:101AC40011111111131377775755757777A7777A13
:101AD400599AACAAAAAA9898885331313311013380
:101AE40031365353566368BBBBBB533333885331CE
:101AF400111333333113666653531311111101114A
:101B04001111111111115775757757777777777808
:101B140038A9AA9AAA9A9998977333111111013383
:101B2400111365111111658BCBB836366658BB534A
:101B3400333333335688B8865533111111111111CB
:101B44001111111111115555575575755757757751
:101B540039A99AA999AAA88878751311111111564F
:101B6400331586333553888CBBB83336668BBB86C6
:101B7400666566688BBBBB86655313111111111121
:101B84001111111111317575755775757775777751
:101B940059B8999655597798878531131111016869
:101BA4008688BBBB886888BCCCB8355688BBBB8BE1
:101BB4008B886888BBBCBB88655311111111111146
:101BC40011111111111155755755575577777777AD
:101BD400B888886535357588878511313110118845
:101BE400B888BB8865388BBCCCB665568888B8B8CD
:101BF400888668BBBCBCB888553313111111111108
:101C0400111111111311555555555577777A777769
:101C14007786755355535587875313131110138BB8
:101C2400BBBB8655688BBBBBCCB866688BBB8B8B48
:101C34008BBBCCCCCBBBB88856331111111111110D
:101C440011111111111355555555777777A7A7A77A
:101C54003578553353333367753331111111058B8F
:101C6400BBCBBB8888BBBBBCCBB86688BBBCCBCC6E
:101C7400CCCCCCCCCCBB888663331311111111119D
:101C840011111111311155555577575777777A77C7
:101C94003155353335331157533331111111138BFA
:101CA400BBCCCCCCCCCBBBBCCBB88888BBBCCCCC61
:101CB400CCCCCCCCBBB888863533111111111111A1
:101CC4001111111311115557577757777777777586
:101CD400113335333535115735333111111005882A
:101CE400BBCCCCCCCCCCCCCCCBBB8B8B8BCCCCCC16
:101CF400CCCCCCCBBBB88866533331111111111045
:101D0400111111113111577777777575777A575704
:101D140013313333553313533333311111110388D2
:101D24008BBBCCCCCCCCBACCCCBB8BBBBBCCCCCCC7
:101D3400CCCCCCCCBB888655533111111111111167
:101D44001111111131313777777777777777A77753
:101D54001111113333331135333333111111036836
:101D6400BBBBCCCCCCCCCCCCCCB8B8B8BBCCCCCC1E
:101D7400CCCCCCCBB8B86655333313111111111137
:101D8400111111111111578AAAAAAAAAAAAAAAAAB8
:101D9400311131333331113313311313111111381C
:101DA400BBCCCCCCCCACCCCCCCBB8B8BBBCCCCCC44
:101DB400CCCCCCCBB888655533311111111111112C
:101DC4001111111111111557887779AA9AA8A7A88A
:101DD4001131111133311111111111111111013876
:101DE400BBBCCCCCCCCCCCCCCCBB888BBACCCCCCF8
:101DF400CCCCCCBBB88865533331111111111111FE
:101E040011110111111115555555557AA8AAAA7A1F
:101E14001311111111111311111111111111013596
:101E24008BBBCACCCCBBCCCCCCBB88888BCCCCCC2D
:101E3400CCCCCBBB88855633333131111111111100
:101E4400111111111111115355555555555557551A
:101E54001111111131131111111111111111111647
:101E640088BBCCCCCCBBCCCCCBB988888CACCCCC10
:101E7400CCBCBBB886865553331311111111111103
:101E840011111111111113355355555555577557D6
:101E940031311131111111110101111111100115FB
:101EA400688BBCCBBBB8BCCCCBBB88866BCCCCCC56
:101EB400CCCBBB8886655533333311111111111105
:101EC4001111011111111115153535555555757728
:101ED40013113111111111111111113311011013B9
:101EE400688BBBBBBBB8CCCCCB66556558CCCCCCD3
:101EF400CBBB8B88886553533311113111111111E8
:101F0400111011111111311353555555555555557E
:101F14001313133131311101011111111110101169
:101F240055688BBBBBBB58B86533333338CCCCCC8A
:101F3400BBBB88886655333333131111111111114A
:101F4400101101101111113535533555555555558D
:101F540011111111111111111101101111010101AE
:101F64005568B88BBBCC86665331113338BCCCBBB7
:101F7400BBBB8886855555333331111111111111AD
:101F84001111110111113113515355355555555531
:101F940033331111111111101111111110110111FB
:101FA40033568888BBCCCCB533313333588BBBBB69
:101FB400BBBB8868665555333311111111111111CA
:101FC40011011011111111155555555555555555EA
:101FD40031131311111311111111110101101101F8
:101FE4003666888BBBBCCCB85333536668BBBB889E
:101FF40088B8888666655333331111111110111195
:102004001111111111111135555555755555555558
:10201400113131311111311110110110110101016E
:10202400356668888BBBCCBB8886666688888B8857
:1020340088B8888686656333331111111111111123
:102044001111111101111313555555555555555568
:102054001311131113131110111011111111101167
:10206400136888888BBBCCBBB886868888888888A8
:10207400BBB98888665653533313111111110111DA
:1020840011111111111111155555577755557555D4
:102094001131131111111111111111011313101117
:1020A4001156888888865668865353333556666831
:1020B400BB8B8886655553333311111111111111DE
:1020C4001111111011111313555557757557555595
:1020D40013131111111111111011111111111111E9
:1020E4001136888885338888888833533333568BF0
:1020F4008BBB8886655533333311111111111111BE
:102104001111111111111111355555555775757559
:10211400111331113111111111111111311111104A
:102124001013888BB8BCCBBB8B88888688888BBB04
:10213400BB88886655553333311131111111111192
:1021440011111111111113135555755557577575F3
:10215400111113111111111111110111111011107B
:1021640011138888BBBCBB888666686668888B8BBD
:102174008B888665553533333313111111111111C1
:10218400111111101111115335557575757575753A
:10219400113131131333333313311111110111116F
:1021A400100135888BBBBB8866656666686888895C
:1021B40088886655533333333113111111111111BA
:1021C400111111111111313555575757557557774D
:1021D4001111133333333331111111111111101043
:1021E4001110335688BBCBB888666668888888889F
:1021F400888665533363333311111311111111118F
:10220400111111111111153355775555575775750E
:10221400131313131313133311111110101111018C
:1022240011101133688BBCCCCCCCCBBBB88888885C
:102234008665535333333333113111111111111195
:1022440011111111111133133557757777577757CA
:1022540013131111133333331311111111101011FE
:1022640011010113368BBCCCCCCCCBBBBB8888888A
:102274008655535353533333311131111111111105
:102284001111111111113333557577755577757512
:10229400333333353355555513311311111111108F
:1022A400111110101158BCCCCCCCCBBB88888786BC
:1022B4005553335335333313111111311111111196
:1022C40011111011113115135555777577778888C9
:1022D4003313333333335555313311110111111184
:1022E400111011011115BBCCCCCCCBBB8B8866551E
:1022F4005535333333533331131331111111111154
:102304001111111111111313355577775757777729
:102314001111111311113333311111111111111143
:1023240013101011010138BBBBBBB88B8855533552
:10233400333333333333311111311111311111115D
:102344001311111113115133355777777775777747
:1023540013131111311313353133111111111113D9
:102364001111010111103668BBB8888686553333C4
:1023740033333333333131313311313111111111DD
:1023840011111111111313151575575777757777A7
:10239400333335555555555553311111111111110B
:1023A40011011100101111335655533533333333A2
:1023B40033333331131133333331131113111111F7
:1023C4001111111111113133355775755555557555
:1023D4003335535555555555551111313111111189
:1023E400111000110110010133333333333333330C
:1023F4003333331131333133331333311111111179
:102404001111111131131331355555555555555574
:10241400111133333555555755111111111111013E
:102424001101001010100110111131333333333303
:102434001111311133333333333333133131131136
:102444001311111111311315133555555555555592
:1024540011111133355555555531111111111111F2
:10246400111001010111101010111111111113118A
:1024740011311113313333333333333331111113F6
:102484001111111313111111153555555555555574
:10249400555557555555555755533110110111116F
:1024A40011100110111000110111333131111113E8
:1024B4003113313333333333353553333131111130
:1024C40011131111313111111151555555555555DE
:1024D4005555555555575575555111110110011143
:1024E4001011101010111100010353333331131163
:1024F40013333333335355355353333333111111AA
:102504001111111111333131515555555555555539
:1025140055555755755555555553111011011111F0
:102524001111001011010111011386555353333356
:102534001333335355556565656353333111331183
:102544001111131113311113335555555555555553
:1025540055555557555555555555111111111111BD
:102564001011110101111001010386556655333311
:1025740033333333353555555555533333131311DD
:1025840013111111313333113335555555555557F1
:10259400555555555555555555553101111133114D
:1025A4001311010111110110111188886656633548
:1025B40035333533635556666666633331333313C7
:1025C400133131113333111311353555755777786C
:1025D400555555555555555555553311111111111D
:1025E4001111101100101001011188888886556599
:1025F40035553656556566666686553333313133FF
:1026040033111133333113111335555757777899E3
:1026140055555555755555555555331111010111DC
:10262400111110101101011011017B8BB88868562B
:102634006555555656668768886666363331333134
:10264400333133133333311111113575777778788A
:1026540055555557355555555533530311111111CA
:102664001111110110111101111168BB89888866BB
:102674006666666666688688868865633333313144
:1026840033113333353333111111355555557567BE
:1026940055555555555555553135310111111111B2
:1026A4001111111011111011110358B9B8B88888FB
:1026B4006868688686888B88B88886655333333122
:1026C400133333133533311111113333135333337C
:1026D4003553355555555555313331113111111186
:1026E40011111111110101110113388B8B8BBB884E
:1026F40088888888888BB889BB8888663333333365
:10270400133333333553311111111311333333333D
:1027140033353333555533533113301101111111FE
:10272400101111110101111111355888B8B9BB8B61
:1027340088B8888BB8BB8B8BB8B888655333333370
:10274400333353335553311111111331133335537B
:10275400333333313353113331311011111011012B
:102764001101101111111111133576888BBB9BB90E
:10277400B88B8BB88B9BBBBBBBB8888566333333B4
:1027840033333533355313131111133111333535B5
:1027940011313111113311111113101101111110D3
:1027A40011001111111111355668888BBBBBBBBBCD
:1027B400BBBB9BB9BBBBBBBBBBBB8B8866633333A7
:1027C40035333533535311313111111131533535FB
:1027D40035355555555555555555555555555555E5
:1027E4005555555555557575777577777777777747
:1027F400888888887888777778788888888888A887
:10280400AAAAAAAAAAAA9AA9AAAAAAAAAAAAAAAA35
:102814005555355353555555555555555555557568
:1028240057557555755777577777777777777777DC
:102834007878A7A788788788887AA788A7A7A8AA76
:10284400AAAA8AAAAAAA8AAAAAA9AAAA9AAAAAAA35
:102854005553555555555555555555575575575502
:10286400755775775775777777577777777777A72A
:10287400A7A778A7A78A8A8A787888AA8A8AAAAA18
:102884008AAAAA8AA8AAAAAAAA89899AAAAAAAA939
:102894005555555555555555557555757575755544
:1028A400757757575777777777777777877877AAD2
:1028B400A877A7A78888878888A8A7A8A8AAA8AA65
:1028C400AAAA8AAAAA9A9AA9A99899A9A8AAAA9ADC
:1028D40055555555555557557555755575755777FE
:1028E4005755757577777777777777A78787887759
:1028F400878A7A88A7878A88A87A7A78A8A8AAA8CB
:102904008AA8AA9A9A9AAAA9A8AAA9AAAA9A9A9AA9
:1029140057575555757555575555775755575777D3
:102924007577777777777777787777A778787788F1
:10293400887878777888A8A8888777A7A8AA88A8A5
:10294400AAAA8A9AAAAAA99A9AAAAAAA9ACACAAA04
:102954005555557557555755757555775777757737
:1029640077777777777887777787887877757555E6
:10297400555577788788888888A7AAA8AA7AAAAAA2
:10298400A99A9AA9AAAAAAAA98A9998AAAACAAAA07
:1029940057555757557555755575577575777757F5
:1029A400777777777878887A87775331111133314D
:1029B400131311111133555778A88A8A8A8AAAA940
:1029C4009AAAAAAACAAAAAAA9AA9AA99AAAACAAA55
:1029D4005557575577755557757575777757777771
:1029E40077777778778878877753111111111111D8
:1029F4003111311111113133588A88A8AA98AA9A31
:102A0400A99AAAAAA9ACAA9AAAAAA9AA9AAAAAAA53
:102A140075757577757757575775777757777777CC
:102A24007777778787888531111113111111111167
:102A34001111311113111131131179989A8A9A9A3B
:102A44009AAAACAAAAAAA9A99AAAAAAAACACCAAADE
:102A54005755777577757575755775777777777770
:102A6400777777778887510011113311111101108D
:102A7400111111111111331113313579889AA9AA41
:102A8400AACAA9ACAAA99AA9AAAAAAAAAAACCCAC6D
:102A940077777775777775775777777777788777D5
:102AA4007878787787511000113331111111101192
:102AB4001111110101113333331111135889A9AACA
:102AC400AACACACACAAAABAAAAAAACCAAAACCCCC79
:102AD4007777757777777777777778785877878781
:102AE4008887879775011111113331111111111153
:102AF400101111011010113333331111158A9AAAD0
:102B0400AAAAACCCAACCAACCCAAAAACACACCCCAC13
:102B140077777777875777777787878788788888ED
:102B24008788777510111113133331111111111195
:102B340011111111011110011113131111119A998D
:102B4400ABACAACCCCCCCACACAACAAAAAACCCCACD0
:102B540077757777577777777878787877888888EC
:102B64008887755111111311133531111111111178
:102B7400111111111101011011111111110179A972
:102B8400AAC9AAACACCAACACACAAACACACAACCCC0E
:102B9400757777577777777778787787888888888D
:102BA4008878310113111311333531313131111159
:102BB4001111111111111111110131111111138977
:102BC400CAACCACCCCCCCCCCCAACACACCCAACACCEB
:102BD400777777777757777777778888888888A81B
:102BE400888511111113313333533111111113111C
:102BF400111111111110101011111111111111399C
:102C0400AAACCCCCCCCCCCCAACAACCCAACCCACCCC8
:102C140077777877777778777777787888A87AA8C6
:102C2400873101111311113335533333331111111A
:102C34001111111110110111111111113111111171
:102C440079CACCCCCCACCCCAAACCCCCCCCCCCCCC59
:102C54008787778777777778888888888888A88827
:102C640087311111111133337777533333333111E2
:102C74001111111111101111110111111111111151
:102C840037ACCCACACCCCCCCCCCCCCCCCCACCCCC95
:102C94008877878778777788787888889A88A898D3
:102CA4005311111133578BBBBBBBB8B88888775508
:102CB40033111111111111111111111111111111DE
:102CC4001159CCACCCCCCCCCCCCCCCCCCCCCCCCC8E
:102CD4007788777877777878888888888A8AA888C0
:102CE400311111357888BBBBB9B9BB9BBBB8888798
:102CF40075533111111111111111111111111111FA
:102D040011179CCCCCCCCCCCCCCCCCCCCCCCCCCC9F
:102D140087877877878777878888889AAAA8887129
:102D24001111778B9BAAACCB9C9BBBBBBBB8888790
:102D34007555333313111111111111111111111191
:102D440011119CCCCCCCCCCCCCCCCCCCCCCCCCCC65
:102D54008777877878788788888898A8A8AA8851F8
:102D64001113788B9BBBCCBCCCCCCCCCBBBB8B88A1
:102D74008755333311111111111111111111111141
:102D8400111189CACACCCCCCCCCCCCCCCCCCCCCC3C
:102D9400887887787888888888888AAA8AA8851114
:102DA400133588B9CCCCCCCCCCCCCCCCCCCBBBBB29
:102DB400887755533331111111101111111111115B
:102DC400111138CACCCCCCCCCCCCCCCCCCCCCCCC4B
:102DD400788887878888788888899A98AA8A7311D6
:102DE40013578BCCCCCCCCCCCCCCCCCCCCCCBCBBAF
:102DF4008888553533333111111111111111111105
:102E04001111159CCCCCCCCCCCCCCCCCCCCCCCCC5B
:102E140088888888888888888899AA9A8A883311B3
:102E24003588BCCCCCCCCCCCCCCCCCCCCCCCCCBBDA
:102E3400BB88755533333111111111111111111151
:102E44001111115ACCCCCCCCCCCCCCCCCCCCCCCC61
:102E540078878888888888888989A998A8871001AC
:102E64003588BACCCCCCCCCCCCCCCCCCCCCCBBBBAD
:102E7400B8B8775535331111111111111111111100
:102E840011131139CCCCCCCCCCCCCCCCCCCCCCCC40
:102E94008888898898898889A8AAAAAAA873011108
:102EA400558BBCCCCCCCCCCCCCCCCCCCCCCCCCCC26
:102EB400BB887755353333111111111111111111CB
:102EC400111111139CCCCCCCCCCCCCCCCCCCCCCC58
:102ED400888898A9899888A8AA9AAAA888501013BB
:102EE4005788BCCCCCCCCCCCCCCCCCCCCCCCCCCBE8
:102EF400BBB87755755333111111111111111111FB
:102F0400111111118CCCCCCCCCACCCCCCCCCCCCC49
:102F14008888AAA889889AA9AAAAAAAA7531101386
:102F2400788BBCCCCCCCCCCCCCCCCCCCCCCCCCBB93
:102F3400BB887775553533311111111111111111E8
:102F4400111111115CACAA9CACAACCCCCCCACCCCCF
:102F540098888A9888AAA8AAAAAAAAAA7551111513
:102F6400588B9CCCCCCCCCCCCCCCCCCCCCCCCBCB84
:102F7400B8B8887757733333111311111111111124
:102F8400111111113CCCAAAACACCCCCCAA9CCCCC91
:102F940098889998898AAAAAAAAAAA755731113336
:102FA400788BBCCCCCCCCCCCCCCCCCCCCCCCBBB926
:102FB4009BB88787775535533311111111111111AE
:102FC400111111111588AA7AAACCCACABAAACCCCF2
:102FD4008889A9A99898AAAAAAAAAA5555311135E7
:102FE40078B9BCCCCCCCCCCCCCCCCCCCCCCCBBBBB6
:102FF400B88B88888775753533111111111111112A
:1030040011111111337A7889ACAA9AAAAAAACCCC44
:103014008888999998AAAAAA9AAC957533311135DA
:1030240078BBBACCCCCCCCCCCCCCCCCCCCCBBBBB76
:10303400BBBBB8B8888777555331111111111111E1
:1030440011011111117878789989AAA9AAAACCCC6E
:10305400889A999998AA9AAACACA7553311101579C
:10306400788BCCCCCCCCCCCCCCCCCCCCCCCCCBBB43
:10307400BBBB8BB8B888775553311111111111119D
:10308400111111111158A87899899998A8AACCCC32
:103094009889A99998AA9A9ACACA5553111103579B
:1030A400889BCCCBCCCCCCCCCCCCCCCCCCCCCCACF2
:1030B400BBBBBBBBBB8B885753331111111111110F
:1030C4001111111311578777878787778AA9AAACBB
:1030D40088989AA9AACAACACACAA57311310035861
:1030E400888BBCCBCCCCCCCCCCCCCCCCCCCCCBCBB4
:1030F400BBCCBBBBBBB87875533311111111111183
:1031040011111111113877777878878A888AAAA8DB
:1031140089899AACAAAAAACACAC9553111111357E6
:103124008BBBCCACCCCCCCCCCCCCCCCCCCCCCBAC6E
:10313400ACBCBBB9BB8887753333111111111111A4
:103144001111111111377775578888A8A7AAAA8A6F
:103154009899ACAACACAC9AC9AB873111310035788
:103164008BBBCCCCCCCCCCCCCCCCCCCCCCCCCCCCED
:10317400CCCBBB8B8B8887555333111111111101A3
:1031840011111111111777755777A88AAAAA8AA85D
:10319400AAAACACA9CACCACCA9B7553113111158F2
:1031A400889BCACCCCCCCCCCCCCCCCCCCCCCBBBBF4
:1031B400BBBBBB8888877573533111111111111171
:1031C40011111111111755555777888A8A8AA7AAA0
:1031D400AA9BAAAAAAACCCACACB535311110035742
:1031E4008BBBCCCCCCCCCCCCCCCCCCCCCCCBBBBB90
:1031F400BBBB888887555535333111111111111016
:10320400111111113117555777577778AA8AA7A743
:10321400AAA9A9AAACAACBACAB555331111001573A
:1032240089BBBBBCCCCACCBCBBBCCCCCCBB8888720
:103234008777775555535355353331111111101183
:103244001111113113135557775777575AA7A7AA56
:103254009A999ABA9AACA99A9A55333111010135BF
:103264008888BBBCCCCCCBBBBBBCCCCBBB87777579
:103274005355553533333353333311111111111160
:10328400111111113113555575777777777A7A7A49
:1032940059A9ACAAAACAA9A9897353131111013354
:1032A40033335758BBCCBBBBBBBBBB85533588B88A
:1032B40088553311113355757533111111111111CD
:1032C40011111111131377775755757777A7777AFB
:1032D400599AAAC9CAA9A89888533131331101331C
:1032E400113888855888BBBBBBBB875333785531AD
:1032F4001111333331137777555313111111011110
:103304001111111111115775757757577A7777780D
:1033140037A9AAAA9AAAA89987733311111101335C
:10332400311375311135558BCBB83335757BBB33C0
:10333400353553335788B88755331111111111118D
:1033440011111111111155555755757575777577FB
:1033540039A9A9A999AA9888877513111111015738
:1033640055358833333387BCCBB8373778BBBB8705
:10337400778878788BBBBB875553131111111111C2
:103384001111111111317575755757557757777795
:1033940059B899975559779888753113111103586D
:1033A4008888BBBB8888B88CCCB85757888BBBBB84
:1033B400B8887888BBBC9B87753511111111111120
:1033C4001111111111115575575557577777777793
:1033D400B88888753535758887851131311011881D
:1033E400B8888B8875578BBCCCB755577B8BBB88FB
:1033F400888778BBBCBCB8885533131111111111DF
:10340400111111111311555555555757777A77776F
:103414007778755355535587775313131110138BBE
:10342400BBCB8755788BBBBBCBB877788BBBBBBB8F
:103434008BBBCCCCCBBBB8875533111111111111F7
:1034440011111111111355555555777777A7A7A762
:103454003577553353333377873331111111058B56
:10346400BCCBBBB88BBBBBBCCCB87778BBCBBCCC20
:10347400CCCCCCCCCCBB8887553313111111111192
:1034840011111111311155555577757577777A7773
:10349400315535333533115753333111111113BBB2
:1034A400BBCCCCCCBCCCBBBCCCB8888B8BCCCCCC74
:1034B400CCCCCCCCBBB88877553311111111111178
:1034C400111111131111555757777777777777754E
:1034D4001133353335351157353331111110138B01
:1034E400BBCCCCCCCCCCCCCCCBBB888BBBCCCCCCD1
:1034F400CCCCCCCCBBBB887533333111111111103A
:10350400111111113111577777775575777A57570C
:1035140013313333533313533333311111111378BC
:10352400BBBBCCCCCCCCBACCCCBB9BB8BBCCCCCC72
:10353400CCCCCCCCBB88875533311111111111116E
:103544001111111131313777777777777777A7773B
:1035540011111133353311353333331111110188FE
:10356400B8BCCCCCCCCCCCCCCCB98BBBBBCCCCCC31
:10357400CCCCCCCBBBB877555331131111111111ED
:10358400111111111111578AAAAAAAAAAAAAAAAAA0
:1035940031113133333111331331131311110158F4
:1035A400BBCCCCCCCCCCCCCCCCBBB8BBBCCCCCCCAE
:1035B400CCCCCCCB8B88555733311111111111114F
:1035C400111111111111155788777A9AA8A8A7A873
:1035D400113113113331111111111111111101385C
:1035E400BBBCCCCCCCCCCCCCCCBB8889BBCCCCCCE1
:1035F400CCCCCCBBB88875533313111111111111F4
:1036040011111111111115555557757A8A8AAA7A13
:103614001311111111311111111111111111113550
:103624008BBBBACCCCBBCCCCCCBB88888BBCCCCC35
:10363400CCCCBBBB88855735333111111111111115
:103644001111111111111133355555555555575542
:103654001111111111111111111111111111103533
:103664008BBBCCCCCBBBBCCCCBB998887BCCCCCCE7
:10367400CCBCBBB8887755533313111111111111F8
:10368400111111111111135555555555555775579C
:1036940031311131111111110101111111110113E4
:1036A400788BCCCBBBB8BCCCCBB87877558CCCCC96
:1036B400CCCBB888877555533313111111111111DF
:1036C40011111111111111153535555555557577C0
:1036D40013113111111111111111113311011013A1
:1036E400778BBBCBBBBBBCCCCB755353555BCCCC22
:1036F400CBBB8B88877573333311113111111111C1
:103704001110011111113111535535555555555598
:10371400131313313113110101111111111001038C
:103724003778BBBBBBBC58B875311133338CCCCCA8
:10373400BBBB8887775555333331111111111111E2
:103744001111101111113135355355555555555524
:103754001111111111111111110110111101101177
:103764005578BBBBBBBC77873333131135BCCCBC9A
:10377400BBB98887755533333311111111111111E8
:10378400111111101111111351533535555555554A
:103794003331111111111110111111101101010105
:1037A4003557888BBBCCCB7533313333588BBBBB8C
:1037B400B8B888777555533333111111111111119C
:1037C40011111110111111155555555555555555C2
:1037D40031131313111111111111111010111111B1
:1037E400335788B8BBBCCCC85333355778BBBBBB45
:1037F400B9B8887777555533331131111110101139
:103804001111111111111135555555755555555540
:103814001131313111133111101111111111111113
:1038240033577888BBBBCCC888777778888BBBB88C
:10383400B898888777557533331111111111111107
:103844001111111101111113555555555555555552
:103854001311131131111111110111101111010161
:10386400135778888BBBCCBBB887777888B88B8B99
:10387400B8BB8887775553333311111111110111D6
:1038840011111111111111155555577755557555BC
:1038940011311311131111111011111113131011EE
:1038A4001157888888BB558877555533335888888D
:1038B4008BB98887755535333311111111111111D5
:1038C400111111011111111355555775755755558E
:1038D40013131111111111111111011111110110F1
:1038E4001137888888758BCCBBBB8875533577783E
:1038F400B8B888877555533313311111111111114B
:103904001111111011111311355555555775757540
:10391400111331111113311111111111311111013F
:1039240001158888755BCB887777577778878BBB49
:10393400B8BB887755535333311311111111111139
:1039440011111111111111135555755557577575DD
:103954001111131311111111111111111110111051
:1039640010138BB888BBBB88553575577888B8B8A1
:10397400BBB8777555533533331113111111111128
:10398400111111111111135335557575757575751F
:103994001131331313333333033111111101110175
:1039A40010015788BBBCBBB87755557777888B8B8C
:1039B40089B8755553353333311311111111111160
:1039C4001111110111111135555757575575577765
:1039D4001111133333333331130111111111111038
:1039E4001010357888BB9BBB88787778777888887F
:1039F4009888755333533333111131111111111147
:103A040011111111111115335577555557577575F6
:103A14001313131313331333111111101011110154
:103A240011011133788BBCCCCCCCBBB8B887888857
:103A34007875533333533333111113111111111199
:103A440011111111111133133557757777577757B2
:103A54001313111113333333131111011101111104
:103A6400101001135788BCCCCCCCCBBBB888888849
:103A7400875553553333333331311111111111112A
:103A840011111111111133335575777555777575FA
:103A94003333333533555555133113111011111078
:103AA400110101011157BCCCCCCCCBBB88888777E2
:103AB400555333333533331311131131111111119C
:103AC40011111111113115135555777577778888B0
:103AD400331333333333555531333110111111113D
:103AE400111110101133BBCCCCCCCBB898887755BE
:103AF400553533335333333113113111111111113E
:103B04001111111111111313355577775757777711
:103B1400111111131111333331111111111111112B
:103B240031110111011058BBBBBBB88888555353E0
:103B34003333333333333111113113113111111143
:103B44001111111113115133355777777775777731
:103B540013131111311313353133111111111113C1
:103B64001111010110113588BBBB88887755333397
:103B74003333333333313113131311111111111141
:103B8400111111111113131515755757777577778F
:103B940033333555555555555331111111111111F3
:103BA40011010101010111335555553533333333B7
:103BB40033333333113133333133111111111111C3
:103BC40011111111313131333557757555555575FD
:103BD4003335535555555555551111313111111171
:103BE40011101011011010113333333333333333C5
:103BF4003333331111333133333113313131111143
:103C0400111111111111133135555555555555557E
:103C14001111333335555555551111111111111118
:103C240011011011010111110111313333333331F9
:103C34003111313113333333331333133131111120
:103C4400111111111113131513355555555555559A
:103C540011111133355555555531111111100111EB
:103C64001111010010110100101111111111311164
:103C740011111113333333333333333331111311FC
:103C8400113111131311311115355555555555551C
:103C94005555575555555557555331101111111147
:103CA40011110100101101010111333311311111EE
:103CB4001331313333333333353553333111311118
:103CC40011111111311111111151555555555555E8
:103CD400555555555557557555531111101001111A
:103CE4000101111101101101010353333331333137
:103CF40031333333333335355353333333131111B2
:103D040031131111113331315155555555555555FF
:103D140055555755755555555553111010111111C9
:103D2400011110111111111011137755535333331D
:103D340013313353535355555555533331113311AF
:103D44001313131113131113335555555555555555
:103D540055555557555555555555111111111111A5
:103D6400111001010101001100118755553535333A
:103D740033333333535355555553353333131311A9
:103D840011111131313333113335555555555557BB
:103D94005555555555555555555531011111331135
:103DA4001111010110111110101178877757535513
:103DB4003353535373555777777573333133331103
:103DC4003131311333331113113535557557777834
:103DD4005555555555555555555533111111111105
:103DE400131110111101110111118888887755558B
:103DF40037355375557577775777553333313133B5
:103E040033111131333131311135555757777889A1
:103E140055555555755555555555331111010111C4
:103E24001111111011110100101178B8B8887757C9
:103E340075555557557777788887573333313331EC
:103E44003333331333333311111135757777878750
:103E540055555557355555555533530311111111B2
:103E640011110101110110111111799B9B8888779F
:103E74005777777577777888887775573333313301
:103E840013113313353331111111355555555577F8
:103E9400555555555555555531353101111111119A
:103EA400111111111011011111115899BB88888831
:103EB4007777787888888B88B888877753333333D3
:103EC4003333333335333131111133331353333304
:103ED400355335555555555531333111311111116E
:103EE40011111010110101010113388899BBBB880D
:103EF40088887888788BB88B9B888877333333337A
:103F04001333333335533111111113113333333325
:103F14003335331355553353311310110111111126
:103F2400101111011011111111355788B9BBBB8B38
:103F340088B888B8B88B8B88BBB88885533333333B
:103F44003333333355533111111113311333355383
:103F54003333333135531133313110101110110112
:103F64001101101011111111133578888BBB9BB9F5
:103F7400B8B8B8BB8BBBB9BBBBB888855733333330
:103F8400333355333553131311111331113335357D
:103F9400113111111113111111131011011111010A
:103FA4001010001111111135577888BBBBBBBBBB76
:103FB400BBBBBBBBBBBBBBBBBBB88B875773333370
:103FC40053355533535311313111111131513535A5
:103FD40035355555555555555555555555555555CD
:103FE400555555555555757577757777777777772F
:103FF400888888887988777778788888888899996C
:10400400AAAA9A9A9A9A99A99A9AA9A9AAAAA9AA81
:104014005555355353555555555555555555557550
:1040240057557555755777577777777777777777C4
:104034007878A7A7A8A88788887AA788A7A7A8AA0E
:10404400AAAAAAA8AA9AA8A9AA9A9A9AA9AAA9A914
:1040540055535555555555555555555755755755EA
:10406400755775775775777777577777777777A712
:10407400A7A778A77A788A8A787888AA8A8AAAAA3F
:104084008AAAA8AAAAAAAAAAA9A9A9AA9AAAAA9AD1
:10409400555555555555555555755575757575552C
:1040A400757757575777777777777777877877AABA
:1040B400A877A7888A88878888A8A7A8A8AAA8AA6A
:1040C400AAAAAA9AAA9A9A9A9A9999A9A99AA9A9D2
:1040D40055555555555557557555755575755777E6
:1040E4005755757577777777777777A78787887741
:1040F400878A7AA8A7878A88A87A7A78A8A8AAA893
:104104008AA999A999A9AAAA9999A9A9A9AAAA9A85
:1041140057575555757555575555775755575777BB
:104124007577777777777777787777A778887788C9
:104134008878788778888A88888777A79A8A88A9E8
:10414400A999999AAAAAAA999AA9A9A9AAACAAAA20
:10415400555555755755575575755577577765772F
:1041640077777777777887777787887877577555EC
:1041740055555778887888888A87AAAA8A8AAAAAE5
:10418400A9AA9AA9AAAAAAAA9AAA9A9AAAAACAAAAD
:1041940057555757557555755575577575777757DD
:1041A4007777777778788879877753311111333136
:1041B400131311111133555788A78A9AA8A9AAAACB
:1041C4009A9AAAAACAAAA9AA9AAAA9A9AAAAAAAA5E
:1041D4005557575577755557757575777757777759
:1041E40077777778778878877753111111131111BE
:1041F4003111131111113133579A88A8A9989A9A39
:10420400A9AAAAAAAAACAAA9AAAAAA9AA9AAAAAA1B
:1042140075757577757757575775777757777777B4
:10422400777777878788853111111311111111114F
:1042340011111311111111313311799898AA9A9A05
:104244009AAAACAAAAAAAA99AAAAAAAAACACCAAAC5
:104254005755777577757575755775767777777759
:104264007777777788875100111133111110011076
:104274001111111131313311113135789999A99AEC
:10428400AACAA9AAAAAAA9A9AAAAAAAAAAACCCAC47
:1042940077777775777775775777777777788777BD
:1042A400787878778751100011333111111110117A
:1042B4001110101001113333331111135899AAA995
:1042C400AACACACAAAAAAAACAAAAACCAAAACCCCC80
:1042D4007777757777777777777778785877878769
:1042E400888788977501111111333111111111113A
:1042F400111111011010113333331111138A9AAAB9
:10430400AAAAACCCACCAAACACAAAAAACCACCCCAC1B
:1043140077777777875777777786778788788888E6
:10432400888877751011111313333111111111117C
:10433400101111111111100111131111111199A959
:10434400A9CAAACCCCCCCACACAACAACAAACCCCAC7C
:1043540077757777577777777877787867888888E5
:104364008787755111111311133531111111111161
:104374001111111111010110111113111111899A47
:10438400AAAAAAACCCCAACACAAAACAACCAAACCCCBB
:104394007577775777777777778778778898888866
:1043A4008877310113111313333531313131111140
:1043B4001111111111101111110131111111138960
:1043C400AAAAAACCCCCCCCCACCACACACCCAACACC15
:1043D400777777777757777788788888888888A8F1
:1043E400A7871111111331333353311111111311E3
:1043F4001111111111111010111111111111113983
:10440400AAACCCCCCCCCCCCAACAACCCAACCCACCCB0
:1044140077777877777787687778788888A87AAA9B
:1044240087311111131113333653333333111111EF
:104434001111111110110111111111111111111179
:1044440079ACCCCCCCACCCCACACCCCCCCCCCCCCC3F
:104454008787778777777787888888888888A988FF
:1044640097311111111133356666533333333111DA
:104474001111111111101111110111111311111137
:1044840036CACCACACCCCCCCCCCCCCCCCCACCCCC60
:104494008877878778777887888888899A89A89899
:1044A4005311111133568BBBBBBBB8888888866502
:1044B40033111111111111111111111111111111C6
:1044C4001159ACACCCCCCCCCCCCCCCCCCCCCCCCC96
:1044D4007788777877777788887888888898A8988D
:1044E40031111135688BBBBBB9B9BBBB8BB888869E
:1044F40065533111111111111111111111111111F2
:104504001116BCCCCCCCCCCCCCCCCCCCCCCCCCCC68
:1045140087877867878778788888899AAA8888714E
:104524001111688BBBAAACCB9CBBBBB9B98888867C
:104534006555333313111111111111111111111189
:1045440011119CACCCCCCCCCCCCCCCCCCCCCCCCC6D
:10455400877787877878878888889898AAAA8851DF
:104564001113888B9BBBCCBCCCCCCCCCBBCBB8883C
:104574008855333311111111111111111111111128
:1045840011118ACCACCCCCCCCCCCCCCCCCCCCCCC3F
:104594008878777878888888888899A88AA88511FF
:1045A400135588B9CCCCCCCCCCCCCCCCCCCBBBBBF1
:1045B4008886555333311111111011111111111134
:1045C400111138CACCCCCCCCCCCCCCCCCCCCCCCC33
:1045D40078888887888878888889999AAA8A7311BC
:1045E40013368BBCCCCCCCCCCCCCCCCCCCCCCBB9BB
:1045F40088885363533331111111111111111111A1
:104604001111159CCCCCCCCCCCCCCCCCCCCCCCCC43
:1046140088878888888888888899A9A99A8833117E
:104624003588BCCCCCCCCCCCCCCCCCCCCCCCBCBBD2
:10463400BB88656553333111111111111111111119
:104644001111115ACCCCCCCCCCCCCCCCCCCCCCCC49
:1046540078888888889888888899A999A887110172
:104664003588BACCCCCCCCCCCCCCCCCCCCCCCCBB84
:10467400BBB86656333311111111111111111111F7
:1046840011131139CCCCCCCCCCCCCCCCCCCCCCCC28
:104694008888898999988889999AAAAAA8731103FC
:1046A400368BBCCCCCCCCCCCCCCCCCCCCCCCCCCC2D
:1046B400BBB8666635333311111111111111111183
:1046C400111111139CCCCCCCCCCCCCCCCCCCCCCC40
:1046D400888898A898998899A9AAAA8A78511113C0
:1046E4005888BCCCCCCCCCCCCCCCCCCCCCCCCCCBCF
:1046F400BBB88656635333111111111111111111E5
:10470400111111118CCCCCCCCCACCCCCCCCCCCCC31
:104714008888A8A8898999A9AAAAAAAA753111156D
:10472400688BCACCCCCCCCCCCCCCCCCCCCCCCCBB7D
:10473400BB888665555333311111111111111111B3
:10474400111111115CCCAA9CACAACCCCCCCACCCC97
:1047540098889A9888A99AAAAAAAAAAA755101130C
:10476400688BBCCCCCCCCCCCCCCCCCCCCCCCCBCB3C
:10477400B8B888865553333311131111111111111F
:10478400111111113CCAAAAACACCCCCCAA9CCCCC7B
:10479400988899988989AAAAAAAAAA755631013330
:1047A40058B8BCCCCCCCCCCCCCCCCCCCCCCCBBBBFF
:1047B400B88B8888665533533311111111111111B7
:1047C40011111111159AAA7AAACCACACABAACCCC13
:1047D4008989A999999AAAAAAAAAAA5555311135DB
:1047E400688BBCCCCCCCCCCCCCCCCCCCCCCCBBBBDC
:1047F4008BB8888886656653331111111111111114
:104804001111111133788789CABAAAA9AAACCCCCE0
:104814008898999998AAAAAA9AAC956533311135C2
:1048240068BBCCCCCBCCCCCCCCCCCCCCCCCBBBBB5D
:10483400B8BB8B8888886656333111111111111158
:1048440011011111117878799999AAA99AAACCCC55
:104854008989999989AA9AAACACA75633111015694
:10486400688BBCCCCCCCCCCCCCCCCCCCCCCCCBBB4B
:10487400BBBBB8BB88888656353111111111111193
:10488400111111111158A87799999998AAAACCCC09
:104894009889A99999AA9AACACAA5551311103588F
:1048A400889BCCCCCCCCCCCCCCCCCCCCCCCCBACBCC
:1048B400BBBBB9BBBBB888653333111111111111DE
:1048C40011111113115787778787877A8A9AAAACAF
:1048D40098899AA9AACAACCAA9CA583311300358EC
:1048E40088BBCABCCCCCCCCCCCCCCCCCCCCCCCCB6C
:1048F400CBCCBBBBBB8B68665333111111111111A7
:1049040011111111113877777788878887AAAAA996
:104914009989BAACAAAAA9CACAC8533111110356B3
:104924008BBAACBCCCCCCCCCCCCCCCCCCCCCBCCC56
:10493400BCBCBB8BBB8886653333111111111111BB
:1049440011111111113777755788888AA7AA8AAA75
:104954009999ACAACACACA9CA9B88331131003682E
:104964008BBCCCCACCCCCCCCCCCCCCCCCCCCCBCCD7
:10497400BACBBBB88B88886553331111111111015F
:104984001111111111177775577788A8AAAAA8A829
:10499400AAACACAA9CACCACCABB755311111115816
:1049A4008BBBCCCCCCCCCCCCCCCCCCCCCCCCCCBBA6
:1049B400BBBBBB8888886563533111111111111178
:1049C4001111111111175555577788999A8AA7AA69
:1049D400AAC9AAAAAAACCCAACAB5353011100356E2
:1049E4008B8BBBBCCCCCCCCCCCCCCCCCCCCCBBBBC8
:1049F400BBB88688866555553331111111111110D4
:104A0400111111113117555777577778A8AAA7A80C
:104A1400BAA99A9A9CAC9BAC9955353110100138BF
:104A24008888888BBBBBBCBCBBBBBBBBBB8655559A
:104A34005553555535535535333331111111101123
:104A44001111113113135557775777757AA7A7AA00
:104A5400AA9BAA9AAAAAC99A995533311111013667
:104A6400688655668BBCCBBBBBBBBBB8863535559E
:104A7400533333333333533353331111111111116E
:104A8400111111113113555575777757777A7A7A51
:104A940059A99AAAACAAAC9989735133111101335B
:104AA40033158B8655568BBBBBBB85333356B888C1
:104AB4008655331113135536653311111111111124
:104AC40011111111131377775755757777A7777AE3
:104AD400599AACAAAAAA9898885331313311013350
:104AE40031365353566368BBBBBB5333338853319E
:104AF400111333333113666653531311111101111A
:104B040011111111111157757577577777777778D8
:104B140038A9AA9AAA9A9998977333111111013353
:104B2400111365111111658BCBB836366658BB531A
:104B3400333333335688B88655331111111111119B
:104B44001111111111115555575575755757757721
:104B540039A99AA999AAA88878751311111111561F
:104B6400331586333553888CBBB83336668BBB8696
:104B7400666566688BBBBB866553131111111111F1
:104B84001111111111317575755775757775777721
:104B940059B8999655597798878531131111016839
:104BA4008688BBBB886888BCCCB8355688BBBB8BB1
:104BB4008B886888BBBCBB88655311111111111116
:104BC400111111111111557557555755777777777D
:104BD400B888886535357588878511313110118815
:104BE400B888BB8865388BBCCCB665568888B8B89D
:104BF400888668BBBCBCB8885533131111111111D8
:104C0400111111111311555555555577777A777739
:104C14007786755355535587875313131110138B88
:104C2400BBBB8655688BBBBBCCB866688BBB8B8B18
:104C34008BBBCCCCCBBBB8885633111111111111DD
:104C440011111111111355555555777777A7A7A74A
:104C54003578553353333367753331111111058B5F
:104C6400BBCBBB8888BBBBBCCBB86688BBBCCBCC3E
:104C7400CCCCCCCCCCBB888663331311111111116D
:104C840011111111311155555577575777777A7797
:104C94003155353335331157533331111111138BCA
:104CA400BBCCCCCCCCCBBBBCCBB88888BBBCCCCC31
:104CB400CCCCCCCCBBB88886353311111111111171
:104CC4001111111311115557577757777777777556
:104CD40011333533353511573533311111100588FA
:104CE400BBCCCCCCCCCCCCCCCBBB8B8B8BCCCCCCE6
:104CF400CCCCCCCBBBB88866533331111111111015
:104D0400111111113111577777777575777A5757D4
:104D140013313333553313533333311111110388A2
:104D24008BBBCCCCCCCCBACCCCBB8BBBBBCCCCCC97
:104D3400CCCCCCCCBB888655533111111111111137
:104D44001111111131313777777777777777A77723
:104D54001111113333331135333333111111036806
:104D6400BBBBCCCCCCCCCCCCCCB8B8B8BBCCCCCCEE
:104D7400CCCCCCCBB8B86655333313111111111107
:104D8400111111111111578AAAAAAAAAAAAAAAAA88
:104D940031113133333111331331131311111138EC
:104DA400BBCCCCCCCCACCCCCCCBB8B8BBBCCCCCC14
:104DB400CCCCCCCBB88865553331111111111111FC
:104DC4001111111111111557887779AA9AA8A7A85A
:104DD4001131111133311111111111111111013846
:104DE400BBBCCCCCCCCCCCCCCCBB888BBACCCCCCC8
:104DF400CCCCCCBBB88865533331111111111111CE
:104E040011110111111115555555557AA8AAAA7AEF
:104E14001311111111111311111111111111013566
:104E24008BBBCACCCCBBCCCCCCBB88888BCCCCCCFD
:104E3400CCCCCBBB888556333331311111111111D0
:104E440011111111111111535555555555555755EA
:104E54001111111131131111111111111111111617
:104E640088BBCCCCCCBBCCCCCBB988888CACCCCCE0
:104E7400CCBCBBB8868655533313111111111111D3
:104E840011111111111113355355555555577557A6
:104E940031311131111111110101111111100115CB
:104EA400688BBCCBBBB8BCCCCBBB88866BCCCCCC26
:104EB400CCCBBB88866555333333111111111111D5
:104EC40011110111111111151535355555557577F8
:104ED4001311311111111111111111331101101389
:104EE400688BBBBBBBB8CCCCCB66556558CCCCCCA3
:104EF400CBBB8B88886553533311113111111111B8
:104F0400111011111111311353555555555555554E
:104F14001313133131311101011111111110101139
:104F240055688BBBBBBB58B86533333338CCCCCC5A
:104F3400BBBB88886655333333131111111111111A
:104F4400101101101111113535533555555555555D
:104F5400111111111111111111011011110101017E
:104F64005568B88BBBCC86665331113338BCCCBB87
:104F7400BBBB88868555553333311111111111117D
:104F84001111110111113113515355355555555501
:104F940033331111111111101111111110110111CB
:104FA40033568888BBCCCCB533313333588BBBBB39
:104FB400BBBB88686655553333111111111111119A
:104FC40011011011111111155555555555555555BA
:104FD40031131311111311111111110101101101C8
:104FE4003666888BBBBCCCB85333536668BBBB886E
:104FF40088B8888666655333331111111110111165
:105004001111111111111135555555755555555528
:10501400113131311111311110110110110101013E
:10502400356668888BBBCCBB8886666688888B8827
:1050340088B88886866563333311111111111111F3
:105044001111111101111313555555555555555538
:105054001311131113131110111011111111101137
:10506400136888888BBBCCBBB88686888888888878
:10507400BBB98888665653533313111111110111AA
:1050840011111111111111155555577755557555A4
:1050940011311311111111111111110113131011E7
:1050A4001156888888865668865353333556666801
:1050B400BB8B8886655553333311111111111111AE
:1050C4001111111011111313555557757557555565
:1050D40013131111111111111011111111111111B9
:1050E4001136888885338888888833533333568BC0
:1050F4008BBB88866555333333111111111111118E
:105104001111111111111111355555555775757529
:10511400111331113111111111111111311111101A
:105124001013888BB8BCCBBB8B88888688888BBBD4
:10513400BB88886655553333311131111111111162
:1051440011111111111113135555755557577575C3
:10515400111113111111111111110111111011104B
:1051640011138888BBBCBB888666686668888B8B8D
:105174008B88866555353333331311111111111191
:10518400111111101111115335557575757575750A
:10519400113131131333333313311111110111113F
:1051A400100135888BBBBB8866656666686888892C
:1051B400888866555333333331131111111111118A
:1051C400111111111111313555575757557557771D
:1051D4001111133333333331111111111111101013
:1051E4001110335688BBCBB888666668888888886F
:1051F400888665533363333311111311111111115F
:1052040011111111111115335577555557577575DE
:10521400131313131313133311111110101111015C
:1052240011101133688BBCCCCCCCCBBBB88888882C
:105234008665535333333333113111111111111165
:10524400111111111111331335577577775777579A
:1052540013131111133333331311111111101011CE
:1052640011010113368BBCCCCCCCCBBBBB8888885A
:1052740086555353535333333111311111111111D5
:1052840011111111111133335575777555777575E2
:10529400333333353355555513311311111111105F
:1052A400111110101158BCCCCCCCCBBB888887868C
:1052B4005553335335333313111111311111111166
:1052C4001111101111311513555577757777888899
:1052D4003313333333335555313311110111111154
:1052E400111011011115BBCCCCCCCBBB8B886655EE
:1052F4005535333333533331131331111111111124
:1053040011111111111113133555777757577777F9
:105314001111111311113333311111111111111113
:1053240013101011010138BBBBBBB88B8855533522
:10533400333333333333311111311111311111112D
:105344001311111113115133355777777775777717
:1053540013131111311313353133111111111113A9
:105364001111010111103668BBB888868655333394
:1053740033333333333131313311313111111111AD
:105384001111111111131315157557577775777777
:1053940033333555555555555331111111111111DB
:1053A4001101110010111133565553353333333372
:1053B40033333331131133333331131113111111C7
:1053C4001111111111113133355775755555557525
:1053D4003335535555555555551111313111111159
:1053E40011100011011001013333333333333333DC
:1053F4003333331131333133331333311111111149
:105404001111111131131331355555555555555544
:10541400111133333555555755111111111111010E
:1054240011010010101001101111313333333333D3
:105434001111311133333333333333133131131106
:105444001311111111311315133555555555555562
:1054540011111133355555555531111111111111C2
:10546400111001010111101010111111111113115A
:1054740011311113313333333333333331111113C6
:105484001111111313111111153555555555555544
:10549400555557555555555755533110110111113F
:1054A40011100110111000110111333131111113B8
:1054B4003113313333333333353553333131111100
:1054C40011131111313111111151555555555555AE
:1054D4005555555555575575555111110110011113
:1054E4001011101010111100010353333331131133
:1054F400133333333353553553533333331111117A
:105504001111111111333131515555555555555509
:1055140055555755755555555553111011011111C0
:105524001111001011010111011386555353333326
:105534001333335355556565656353333111331153
:105544001111131113311113335555555555555523
:10555400555555575555555555551111111111118D
:1055640010111101011110010103865566553333E1
:1055740033333333353555555555533333131311AD
:1055840013111111313333113335555555555557C1
:10559400555555555555555555553101111133111D
:1055A4001311010111110110111188886656633518
:1055B4003533353363555666666663333133331397
:1055C400133131113333111311353555755777783C
:1055D40055555555555555555555331111111111ED
:1055E4001111101100101001011188888886556569
:1055F40035553656556566666686553333313133CF
:1056040033111133333113111335555757777899B3
:1056140055555555755555555555331111010111AC
:10562400111110101101011011017B8BB8886856FB
:105634006555555656668768886666363331333104
:10564400333133133333311111113575777778785A
:10565400555555573555555555335303111111119A
:105664001111110110111101111168BB898888668B
:105674006666666666688688868865633333313114
:10568400331133333533331111113555555575678E
:105694005555555555555555313531011111111182
:1056A4001111111011111011110358B9B8B88888CB
:1056B4006868688686888B88B888866553333331F2
:1056C400133333133533311111113333135333334C
:1056D4003553355555555555313331113111111156
:1056E40011111111110101110113388B8B8BBB881E
:1056F40088888888888BB889BB8888663333333335
:10570400133333333553311111111311333333330D
:1057140033353333555533533113301101111111CE
:10572400101111110101111111355888B8B9BB8B31
:1057340088B8888BB8BB8B8BB8B888655333333340
:10574400333353335553311111111331133335534B
:1057540033333331335311333131101111101101FB
:105764001101101111111111133576888BBB9BB9DE
:10577400B88B8BB88B9BBBBBBBB888856633333384
:105784003333353335531313111113311133353585
:1057940011313111113311111113101101111110A3
:1057A40011001111111111355668888BBBBBBBBB9D
:1057B400BBBB9BB9BBBBBBBBBBBB8B886663333377
:1057C40035333533535311313111111131533535CB
:1057D40020202020202020202020202020202020C5
:1057E400202020202020686F7727726520796F752C
:1057F40020646F696E673F20202020202020202015
:1058040020202020202020202020202020000000F4
:00000001FF
