:1000000000040020010500005D0500005D05000002
:100010005D0500005D0500005D05000000000000BA
:100020000000000000000000000000005D0500006E
:100030005D050000000000005D0500005D0500009A
:100040005D0500005D0500005D0500005D05000028
:100050005D0500005D0500005D0500005D05000018
:100060005D0500005D0500005D0500005D05000008
:100070005D0500005D0500005D0500005D050000F8
:100080005D0500005D0500005D0500005D050000E8
:100090005D0500005D0500005D0500005D050000D8
:1000A0005D0500005D0500005D0500005D050000C8
:1000B0005D0500005D0500005D0500005D050000B8
:1000C0005D0500005D0500005D0500005D050000A8
:1000D0005D0500005D0500005D0500005D05000098
:1000E0005D0500005D0500005D0500005D05000088
:1000F0005D0500005D0500005D0500005D05000078
:1001000090B583B000AF304800F068F82F4800F099
:1001100065F82F480F2100F0C7F92E48012100F0A3
:10012000D9F92B480F2102220A2300F0B3F82948FD
:1001300001210222082300F0ADF82548012100F03A
:100140008DF90346002B14BF00230123DCB22048A5
:10015000022100F083F90346002B14BF0023012382
:10016000DBB22343DBB21C461948042100F076F9C8
:100170000346002B14BF00230123DBB21C431448A9
:10018000082100F06BF90346002B14BF0023012364
:10019000DBB22343002B0CD00E48012100F05EF9A6
:1001A0000346DBB2DB43DBB20A4801211A4600F00A
:1001B00067F900237B6002E07B6801337B607A682B
:1001C000054B9A42F8D9B8E7100000202000002023
:1001D0000040024000500240EF49020080B483B06A
:1001E00000AF78607B681A0F0B4B53F822307A68A7
:1001F000110F094A52F8212011687A6890B27A6882
:1002000002F4F812120C00FA02F20A431A600C37D8
:10021000BD465DF8047B70478005000080B485B062
:1002200000AFF8600B467A60FB72FB6803F58063F1
:100230001A467B6803F00103002B06D0FB6803F528
:1002400080631968FB7A0B4306E0FB6803F5806363
:100250001968FB7ADB430B401360FB6803F584638A
:100260001A467B6803F00203002B06D0FB6803F5F7
:1002700084631968FB7A0B4306E0FB6803F584632B
:100280001968FB7ADB430B4013601437BD465DF8F9
:10029000047B704780B485B000AFF8607A603B6043
:1002A0000B46FB72FB6803F5A0631A467B6803F0FC
:1002B0000103002B06D0FB6803F5A0631968FB7AE5
:1002C0000B4306E0FB6803F5A0631968FB7ADB4388
:1002D0000B401360FB6803F204531A467B6803F07B
:1002E0000203002B06D0FB6803F204531968FB7A63
:1002F0000B4306E0FB6803F204531968FB7ADB4307
:100300000B401360FB6803F5A1631A467B6803F09A
:100310000403002B06D0FB6803F5A1631968FB7A80
:100320000B4306E0FB6803F5A1631968FB7ADB4326
:100330000B401360FB6803F5A3631A467B6803F068
:100340000803002B06D0FB6803F5A3631968FB7A4A
:100350000B4306E0FB6803F5A3631968FB7ADB43F4
:100360000B401360FB6803F20C531A463B6803F022
:100370000103002B06D0FB6803F20C531968FB7ACB
:100380000B4306E0FB6803F20C531968FB7ADB436E
:100390000B401360FB6803F5A2631A463B6803F049
:1003A0000203002B06D0FB6803F5A2631968FB7AF1
:1003B0000B4306E0FB6803F5A2631968FB7ADB4395
:1003C0000B401360FB6803F214531A463B6803F0BA
:1003D0000403002B06D0FB6803F214531968FB7A60
:1003E0000B4306E0FB6803F214531968FB7ADB4306
:1003F0000B401360FB6803F21C531A463B6803F082
:100400000803002B06D0FB6803F21C531968FB7A23
:100410000B4306E0FB6803F21C531968FB7ADB43CD
:100420000B401360FB6803F5A5631A463B68002B7D
:1004300006D1FB6803F5A5631968FB7A0B4306E058
:10044000FB6803F5A5631968FB7ADB430B40136077
:100450001437BD465DF8047B704700BF80B483B09D
:1004600000AF78600B46FB70FB789B001A467B68F8
:1004700013441B6818460C37BD465DF8047B704773
:1004800080B483B000AF786013460A46FA70BB7040
:10049000FB789B001A467B681344BA781A600C37C5
:1004A000BD465DF8047B704780B582B000AF7860D0
:1004B0000B46FB70FB78786819460022FFF7AEFE0A
:1004C000FB787868194601220823FFF7E3FE083716
:1004D000BD4680BD80B582B000AF78600B46FB7032
:1004E000FB787868194601220823FFF7D3FEFB78D2
:1004F000786819460122FFF791FE0837BD4680BD96
:1005000080B582B000AF104B7B60104B3B6007E0C2
:100510003B681A1D3A607A68111D796012681A608A
:100520003A680B4B9A42F3D30A480B494FF000024A
:100530008842B8BF40F8042BFFF6FAAFFFF7E0FDA2
:100540000837BD4680BD00BF000600000000002047
:1005500000000020000000200000002080B400AF58
:10056000FEE700BF10E00F4014E00F401CE00F401A
:1005700010E00F4040E00F4044E00F4048E00F40E3
:1005800000E10F4004E10F4008E10F4010E10F408F
:1005900014E10F4018E10F4020E10F4024E10F402B
:1005A00028E10F4040420F0000201C0080841E0004
:1005B00000802500999E36000040380000093D006B
:1005C00000803E0000004B00404B4C0000204E00DD
:1005D000808D5B0000C05D000080700000127A001A
:1005E00000007D0080969800001BB7000080BB00D3
:1005F000C0E8CE00647ADA000024F4000000FA00BB
:00000001FF
